{
  "address": "0xCb40A3573ba8Aab94CD9758b2313472B457a8040",
  "abi": [
    {
      "inputs": [
        {
          "internalType": "uint256",
          "name": "num_dancers",
          "type": "uint256"
        },
        {
          "internalType": "uint256",
          "name": "roundTimeInBlocks",
          "type": "uint256"
        },
        {
          "internalType": "uint256",
          "name": "intermission_time",
          "type": "uint256"
        },
        {
          "internalType": "address",
          "name": "dai_address",
          "type": "address"
        }
      ],
      "stateMutability": "nonpayable",
      "type": "constructor"
    },
    {
      "anonymous": false,
      "inputs": [
        {
          "indexed": true,
          "internalType": "address",
          "name": "owner",
          "type": "address"
        },
        {
          "indexed": true,
          "internalType": "address",
          "name": "approved",
          "type": "address"
        },
        {
          "indexed": true,
          "internalType": "uint256",
          "name": "tokenId",
          "type": "uint256"
        }
      ],
      "name": "Approval",
      "type": "event"
    },
    {
      "anonymous": false,
      "inputs": [
        {
          "indexed": true,
          "internalType": "address",
          "name": "owner",
          "type": "address"
        },
        {
          "indexed": true,
          "internalType": "address",
          "name": "operator",
          "type": "address"
        },
        {
          "indexed": false,
          "internalType": "bool",
          "name": "approved",
          "type": "bool"
        }
      ],
      "name": "ApprovalForAll",
      "type": "event"
    },
    {
      "anonymous": false,
      "inputs": [
        {
          "indexed": true,
          "internalType": "uint256",
          "name": "bracketNo",
          "type": "uint256"
        },
        {
          "indexed": true,
          "internalType": "uint256",
          "name": "nftIda",
          "type": "uint256"
        },
        {
          "indexed": true,
          "internalType": "uint256",
          "name": "nftIdb",
          "type": "uint256"
        }
      ],
      "name": "CreatedNewBracket",
      "type": "event"
    },
    {
      "anonymous": false,
      "inputs": [
        {
          "indexed": true,
          "internalType": "address",
          "name": "a",
          "type": "address"
        },
        {
          "indexed": true,
          "internalType": "uint256",
          "name": "nftid",
          "type": "uint256"
        }
      ],
      "name": "DancerCreated",
      "type": "event"
    },
    {
      "anonymous": false,
      "inputs": [
        {
          "indexed": false,
          "internalType": "uint256",
          "name": "bracket",
          "type": "uint256"
        },
        {
          "indexed": true,
          "internalType": "address",
          "name": "a",
          "type": "address"
        },
        {
          "indexed": true,
          "internalType": "address",
          "name": "b",
          "type": "address"
        }
      ],
      "name": "GotBracketParticipants",
      "type": "event"
    },
    {
      "anonymous": false,
      "inputs": [
        {
          "indexed": true,
          "internalType": "uint256",
          "name": "a",
          "type": "uint256"
        },
        {
          "indexed": true,
          "internalType": "uint256",
          "name": "b",
          "type": "uint256"
        },
        {
          "indexed": true,
          "internalType": "uint256",
          "name": "winnerNFT",
          "type": "uint256"
        }
      ],
      "name": "GotContestants",
      "type": "event"
    },
    {
      "anonymous": false,
      "inputs": [
        {
          "indexed": false,
          "internalType": "uint256",
          "name": "nftID",
          "type": "uint256"
        }
      ],
      "name": "GotWinner",
      "type": "event"
    },
    {
      "anonymous": false,
      "inputs": [
        {
          "indexed": true,
          "internalType": "uint256",
          "name": "log",
          "type": "uint256"
        }
      ],
      "name": "Log",
      "type": "event"
    },
    {
      "anonymous": false,
      "inputs": [
        {
          "indexed": false,
          "internalType": "uint256",
          "name": "nftId",
          "type": "uint256"
        },
        {
          "indexed": false,
          "internalType": "string",
          "name": "uri",
          "type": "string"
        }
      ],
      "name": "NFTMinted",
      "type": "event"
    },
    {
      "anonymous": false,
      "inputs": [
        {
          "indexed": true,
          "internalType": "bytes32",
          "name": "role",
          "type": "bytes32"
        },
        {
          "indexed": true,
          "internalType": "bytes32",
          "name": "previousAdminRole",
          "type": "bytes32"
        },
        {
          "indexed": true,
          "internalType": "bytes32",
          "name": "newAdminRole",
          "type": "bytes32"
        }
      ],
      "name": "RoleAdminChanged",
      "type": "event"
    },
    {
      "anonymous": false,
      "inputs": [
        {
          "indexed": true,
          "internalType": "bytes32",
          "name": "role",
          "type": "bytes32"
        },
        {
          "indexed": true,
          "internalType": "address",
          "name": "account",
          "type": "address"
        },
        {
          "indexed": true,
          "internalType": "address",
          "name": "sender",
          "type": "address"
        }
      ],
      "name": "RoleGranted",
      "type": "event"
    },
    {
      "anonymous": false,
      "inputs": [
        {
          "indexed": true,
          "internalType": "bytes32",
          "name": "role",
          "type": "bytes32"
        },
        {
          "indexed": true,
          "internalType": "address",
          "name": "account",
          "type": "address"
        },
        {
          "indexed": true,
          "internalType": "address",
          "name": "sender",
          "type": "address"
        }
      ],
      "name": "RoleRevoked",
      "type": "event"
    },
    {
      "anonymous": false,
      "inputs": [
        {
          "indexed": true,
          "internalType": "address",
          "name": "from",
          "type": "address"
        },
        {
          "indexed": true,
          "internalType": "address",
          "name": "to",
          "type": "address"
        },
        {
          "indexed": true,
          "internalType": "uint256",
          "name": "tokenId",
          "type": "uint256"
        }
      ],
      "name": "Transfer",
      "type": "event"
    },
    {
      "inputs": [],
      "name": "DEFAULT_ADMIN_ROLE",
      "outputs": [
        {
          "internalType": "bytes32",
          "name": "",
          "type": "bytes32"
        }
      ],
      "stateMutability": "view",
      "type": "function"
    },
    {
      "inputs": [],
      "name": "MATIC_ROLE",
      "outputs": [
        {
          "internalType": "bytes32",
          "name": "",
          "type": "bytes32"
        }
      ],
      "stateMutability": "view",
      "type": "function"
    },
    {
      "inputs": [],
      "name": "MINTER_ROLE",
      "outputs": [
        {
          "internalType": "bytes32",
          "name": "",
          "type": "bytes32"
        }
      ],
      "stateMutability": "view",
      "type": "function"
    },
    {
      "inputs": [],
      "name": "ZKSYNC_ROLE",
      "outputs": [
        {
          "internalType": "bytes32",
          "name": "",
          "type": "bytes32"
        }
      ],
      "stateMutability": "view",
      "type": "function"
    },
    {
      "inputs": [
        {
          "internalType": "uint256",
          "name": "",
          "type": "uint256"
        }
      ],
      "name": "_tokenURIs",
      "outputs": [
        {
          "internalType": "string",
          "name": "",
          "type": "string"
        }
      ],
      "stateMutability": "view",
      "type": "function"
    },
    {
      "inputs": [
        {
          "internalType": "uint256",
          "name": "",
          "type": "uint256"
        }
      ],
      "name": "_votesById",
      "outputs": [
        {
          "internalType": "uint256",
          "name": "",
          "type": "uint256"
        }
      ],
      "stateMutability": "view",
      "type": "function"
    },
    {
      "inputs": [
        {
          "internalType": "uint256",
          "name": "",
          "type": "uint256"
        }
      ],
      "name": "addressByNFTId",
      "outputs": [
        {
          "internalType": "address",
          "name": "",
          "type": "address"
        }
      ],
      "stateMutability": "view",
      "type": "function"
    },
    {
      "inputs": [],
      "name": "advanceGame",
      "outputs": [],
      "stateMutability": "nonpayable",
      "type": "function"
    },
    {
      "inputs": [
        {
          "internalType": "address",
          "name": "to",
          "type": "address"
        },
        {
          "internalType": "uint256",
          "name": "tokenId",
          "type": "uint256"
        }
      ],
      "name": "approve",
      "outputs": [],
      "stateMutability": "nonpayable",
      "type": "function"
    },
    {
      "inputs": [
        {
          "internalType": "address",
          "name": "owner",
          "type": "address"
        }
      ],
      "name": "balanceOf",
      "outputs": [
        {
          "internalType": "uint256",
          "name": "",
          "type": "uint256"
        }
      ],
      "stateMutability": "view",
      "type": "function"
    },
    {
      "inputs": [],
      "name": "createNewRound",
      "outputs": [],
      "stateMutability": "nonpayable",
      "type": "function"
    },
    {
      "inputs": [
        {
          "internalType": "uint256",
          "name": "roundNumber",
          "type": "uint256"
        },
        {
          "internalType": "uint256",
          "name": "bracketNumber",
          "type": "uint256"
        }
      ],
      "name": "determineBracketWinner",
      "outputs": [
        {
          "internalType": "uint256",
          "name": "winner",
          "type": "uint256"
        }
      ],
      "stateMutability": "nonpayable",
      "type": "function"
    },
    {
      "inputs": [],
      "name": "determineBrackets",
      "outputs": [],
      "stateMutability": "nonpayable",
      "type": "function"
    },
    {
      "inputs": [
        {
          "internalType": "uint256",
          "name": "_num_dancers",
          "type": "uint256"
        }
      ],
      "name": "determineGameRounds",
      "outputs": [
        {
          "internalType": "uint256",
          "name": "n",
          "type": "uint256"
        }
      ],
      "stateMutability": "nonpayable",
      "type": "function"
    },
    {
      "inputs": [
        {
          "internalType": "uint256",
          "name": "",
          "type": "uint256"
        }
      ],
      "name": "donationAddressByNftId",
      "outputs": [
        {
          "internalType": "address",
          "name": "",
          "type": "address"
        }
      ],
      "stateMutability": "view",
      "type": "function"
    },
    {
      "inputs": [],
      "name": "g_current_number_dancers",
      "outputs": [
        {
          "internalType": "uint256",
          "name": "",
          "type": "uint256"
        }
      ],
      "stateMutability": "view",
      "type": "function"
    },
    {
      "inputs": [],
      "name": "g_current_round",
      "outputs": [
        {
          "internalType": "uint256",
          "name": "",
          "type": "uint256"
        }
      ],
      "stateMutability": "view",
      "type": "function"
    },
    {
      "inputs": [],
      "name": "g_game_started",
      "outputs": [
        {
          "internalType": "bool",
          "name": "",
          "type": "bool"
        }
      ],
      "stateMutability": "view",
      "type": "function"
    },
    {
      "inputs": [],
      "name": "g_intermission_blocktime",
      "outputs": [
        {
          "internalType": "uint256",
          "name": "",
          "type": "uint256"
        }
      ],
      "stateMutability": "view",
      "type": "function"
    },
    {
      "inputs": [],
      "name": "g_number_dancers",
      "outputs": [
        {
          "internalType": "uint256",
          "name": "",
          "type": "uint256"
        }
      ],
      "stateMutability": "view",
      "type": "function"
    },
    {
      "inputs": [],
      "name": "g_round_blocktime",
      "outputs": [
        {
          "internalType": "uint256",
          "name": "",
          "type": "uint256"
        }
      ],
      "stateMutability": "view",
      "type": "function"
    },
    {
      "inputs": [],
      "name": "g_rounds",
      "outputs": [
        {
          "internalType": "uint256",
          "name": "",
          "type": "uint256"
        }
      ],
      "stateMutability": "view",
      "type": "function"
    },
    {
      "inputs": [],
      "name": "g_start_block",
      "outputs": [
        {
          "internalType": "uint256",
          "name": "",
          "type": "uint256"
        }
      ],
      "stateMutability": "view",
      "type": "function"
    },
    {
      "inputs": [
        {
          "internalType": "uint256",
          "name": "",
          "type": "uint256"
        },
        {
          "internalType": "uint256",
          "name": "",
          "type": "uint256"
        },
        {
          "internalType": "uint256",
          "name": "",
          "type": "uint256"
        },
        {
          "internalType": "uint256",
          "name": "",
          "type": "uint256"
        }
      ],
      "name": "gameByBracketByRound",
      "outputs": [
        {
          "internalType": "uint256",
          "name": "",
          "type": "uint256"
        }
      ],
      "stateMutability": "view",
      "type": "function"
    },
    {
      "inputs": [
        {
          "internalType": "uint256",
          "name": "tokenId",
          "type": "uint256"
        }
      ],
      "name": "getApproved",
      "outputs": [
        {
          "internalType": "address",
          "name": "",
          "type": "address"
        }
      ],
      "stateMutability": "view",
      "type": "function"
    },
    {
      "inputs": [
        {
          "internalType": "bytes32",
          "name": "role",
          "type": "bytes32"
        }
      ],
      "name": "getRoleAdmin",
      "outputs": [
        {
          "internalType": "bytes32",
          "name": "",
          "type": "bytes32"
        }
      ],
      "stateMutability": "view",
      "type": "function"
    },
    {
      "inputs": [
        {
          "internalType": "bytes32",
          "name": "role",
          "type": "bytes32"
        },
        {
          "internalType": "address",
          "name": "account",
          "type": "address"
        }
      ],
      "name": "grantRole",
      "outputs": [],
      "stateMutability": "nonpayable",
      "type": "function"
    },
    {
      "inputs": [
        {
          "internalType": "bytes32",
          "name": "role",
          "type": "bytes32"
        },
        {
          "internalType": "address",
          "name": "account",
          "type": "address"
        }
      ],
      "name": "hasRole",
      "outputs": [
        {
          "internalType": "bool",
          "name": "",
          "type": "bool"
        }
      ],
      "stateMutability": "view",
      "type": "function"
    },
    {
      "inputs": [
        {
          "internalType": "address",
          "name": "owner",
          "type": "address"
        },
        {
          "internalType": "address",
          "name": "operator",
          "type": "address"
        }
      ],
      "name": "isApprovedForAll",
      "outputs": [
        {
          "internalType": "bool",
          "name": "",
          "type": "bool"
        }
      ],
      "stateMutability": "view",
      "type": "function"
    },
    {
      "inputs": [
        {
          "internalType": "uint256",
          "name": "x",
          "type": "uint256"
        }
      ],
      "name": "log2",
      "outputs": [
        {
          "internalType": "uint256",
          "name": "n",
          "type": "uint256"
        }
      ],
      "stateMutability": "nonpayable",
      "type": "function"
    },
    {
      "inputs": [
        {
          "internalType": "address",
          "name": "to",
          "type": "address"
        },
        {
          "internalType": "string",
          "name": "tokenURI",
          "type": "string"
        }
      ],
      "name": "mint",
      "outputs": [
        {
          "internalType": "uint256",
          "name": "tokenID",
          "type": "uint256"
        }
      ],
      "stateMutability": "nonpayable",
      "type": "function"
    },
    {
      "inputs": [
        {
          "internalType": "string",
          "name": "nftURI",
          "type": "string"
        },
        {
          "internalType": "address",
          "name": "creator",
          "type": "address"
        }
      ],
      "name": "mintNFTAndDeployDonationAddress",
      "outputs": [
        {
          "internalType": "address",
          "name": "nft_donation_address",
          "type": "address"
        }
      ],
      "stateMutability": "nonpayable",
      "type": "function"
    },
    {
      "inputs": [],
      "name": "name",
      "outputs": [
        {
          "internalType": "string",
          "name": "",
          "type": "string"
        }
      ],
      "stateMutability": "view",
      "type": "function"
    },
    {
      "inputs": [
        {
          "internalType": "address",
          "name": "",
          "type": "address"
        }
      ],
      "name": "nftIdByDonationAddress",
      "outputs": [
        {
          "internalType": "uint256",
          "name": "",
          "type": "uint256"
        }
      ],
      "stateMutability": "view",
      "type": "function"
    },
    {
      "inputs": [
        {
          "internalType": "uint256",
          "name": "tokenId",
          "type": "uint256"
        }
      ],
      "name": "ownerOf",
      "outputs": [
        {
          "internalType": "address",
          "name": "",
          "type": "address"
        }
      ],
      "stateMutability": "view",
      "type": "function"
    },
    {
      "inputs": [
        {
          "internalType": "bytes32",
          "name": "role",
          "type": "bytes32"
        },
        {
          "internalType": "address",
          "name": "account",
          "type": "address"
        }
      ],
      "name": "renounceRole",
      "outputs": [],
      "stateMutability": "nonpayable",
      "type": "function"
    },
    {
      "inputs": [
        {
          "internalType": "bytes32",
          "name": "role",
          "type": "bytes32"
        },
        {
          "internalType": "address",
          "name": "account",
          "type": "address"
        }
      ],
      "name": "revokeRole",
      "outputs": [],
      "stateMutability": "nonpayable",
      "type": "function"
    },
    {
      "inputs": [
        {
          "internalType": "address",
          "name": "from",
          "type": "address"
        },
        {
          "internalType": "address",
          "name": "to",
          "type": "address"
        },
        {
          "internalType": "uint256",
          "name": "tokenId",
          "type": "uint256"
        }
      ],
      "name": "safeTransferFrom",
      "outputs": [],
      "stateMutability": "nonpayable",
      "type": "function"
    },
    {
      "inputs": [
        {
          "internalType": "address",
          "name": "from",
          "type": "address"
        },
        {
          "internalType": "address",
          "name": "to",
          "type": "address"
        },
        {
          "internalType": "uint256",
          "name": "tokenId",
          "type": "uint256"
        },
        {
          "internalType": "bytes",
          "name": "_data",
          "type": "bytes"
        }
      ],
      "name": "safeTransferFrom",
      "outputs": [],
      "stateMutability": "nonpayable",
      "type": "function"
    },
    {
      "inputs": [
        {
          "internalType": "address",
          "name": "operator",
          "type": "address"
        },
        {
          "internalType": "bool",
          "name": "approved",
          "type": "bool"
        }
      ],
      "name": "setApprovalForAll",
      "outputs": [],
      "stateMutability": "nonpayable",
      "type": "function"
    },
    {
      "inputs": [],
      "name": "startGame",
      "outputs": [],
      "stateMutability": "nonpayable",
      "type": "function"
    },
    {
      "inputs": [
        {
          "internalType": "bytes4",
          "name": "interfaceId",
          "type": "bytes4"
        }
      ],
      "name": "supportsInterface",
      "outputs": [
        {
          "internalType": "bool",
          "name": "",
          "type": "bool"
        }
      ],
      "stateMutability": "view",
      "type": "function"
    },
    {
      "inputs": [],
      "name": "symbol",
      "outputs": [
        {
          "internalType": "string",
          "name": "",
          "type": "string"
        }
      ],
      "stateMutability": "view",
      "type": "function"
    },
    {
      "inputs": [
        {
          "internalType": "uint256",
          "name": "tokenId",
          "type": "uint256"
        }
      ],
      "name": "tokenURI",
      "outputs": [
        {
          "internalType": "string",
          "name": "",
          "type": "string"
        }
      ],
      "stateMutability": "view",
      "type": "function"
    },
    {
      "inputs": [
        {
          "internalType": "address",
          "name": "from",
          "type": "address"
        },
        {
          "internalType": "address",
          "name": "to",
          "type": "address"
        },
        {
          "internalType": "uint256",
          "name": "tokenId",
          "type": "uint256"
        }
      ],
      "name": "transferFrom",
      "outputs": [],
      "stateMutability": "nonpayable",
      "type": "function"
    },
    {
      "inputs": [
        {
          "internalType": "uint256",
          "name": "",
          "type": "uint256"
        }
      ],
      "name": "votesPerNftId",
      "outputs": [
        {
          "internalType": "uint256",
          "name": "",
          "type": "uint256"
        }
      ],
      "stateMutability": "view",
      "type": "function"
    },
    {
      "inputs": [
        {
          "internalType": "uint256",
          "name": "",
          "type": "uint256"
        },
        {
          "internalType": "uint256",
          "name": "",
          "type": "uint256"
        }
      ],
      "name": "winnersByRound",
      "outputs": [
        {
          "internalType": "uint256",
          "name": "",
          "type": "uint256"
        }
      ],
      "stateMutability": "view",
      "type": "function"
    },
    {
      "inputs": [
        {
          "internalType": "address",
          "name": "donation_proxy",
          "type": "address"
        }
      ],
      "name": "withdrawlFromDonationProxyToSelf",
      "outputs": [
        {
          "internalType": "bool",
          "name": "success",
          "type": "bool"
        }
      ],
      "stateMutability": "nonpayable",
      "type": "function"
    }
  ],
  "transactionHash": "0x6d8b62d5d682b679bc209024957e0962760549335a382726ac46d279a2c91780",
  "args": [
    16,
    25,
    50,
    "0x2e055eee18284513b993db7568a592679ab13188"
  ],
  "solcInputHash": "dbce541f9f23b486964b2479112d1ba9",
  "bytecode": "0x60806040526000600e819055600f556016805460ff191690553480156200002557600080fd5b50604051620040ca380380620040ca8339810160408190526200004891620006f3565b604080518082018252601181527011da5d18dbda5b8811185b98d948139195607a1b60208083019182528351808501909452600484526311d2551160e21b9084015281519192916200009d916000916200061d565b508051620000b39060019060208401906200061d565b50620000c59150600090503362000133565b620000f17f9f2df0fed2c77648de5860a4cc508cd0818c85b8b8a1ab4ceeef8d981c8956a63362000133565b600a80546001600160a01b0319166001600160a01b038316179055620001178462000143565b620001228462000291565b506012919091556013555062000812565b6200013f8282620002d8565b5050565b62000150600282620007cf565b15620001a35760405162461bcd60e51b815260206004820152601660248201527f746869732069736e74206120706f776572206f6620320000000000000000000060448201526064015b60405180910390fd5b60165460ff1615620001f85760405162461bcd60e51b815260206004820152601c60248201527f67616d652063616e74206265207374617274656420616c72656164790000000060448201526064016200019a565b60176000600e5460016200020d919062000742565b8152602080820192909252604090810160009081208180528352818120909252902060010154156200028e5760405162461bcd60e51b815260206004820152602360248201527f54686973206c6f6f6b73206c696b65206120726f756e6420657869737473206860448201526265726560e81b60648201526084016200019a565b50565b6200029c8162000143565b600e8054906000620002ae83620007b1565b9091555050600160105560148190556015819055620002cd816200037c565b506200028e62000396565b60008281526006602090815260408083206001600160a01b038516845290915290205460ff166200013f5760008281526006602090815260408083206001600160a01b03851684529091529020805460ff19166001179055620003383390565b6001600160a01b0316816001600160a01b0316837f2f8788117e7eff1d82e926ec794901d17c78024a50270940304540a733656f0d60405160405180910390a45050565b6000806200038a8362000499565b600f8190559392505050565b6000620003d06002620003bc601054601554620005cf60201b620018141790919060201c565b620005cf60201b620018141790919060201c565b905060006001815b83811162000493576200040681604051806040016040528086815260200185815250620005e460201b60201c565b6000828152600b6020908152604080832054868452928190205490518481526001600160a01b0393841693909116917fbbcbae1c475b8de12a83d866f05a6c253f2af9b5a7e299aa0d6f9fc50fb66e1e910160405180910390a36200046d82600162000742565b92506200047c83600162000742565b9150806200048a81620007b1565b915050620003d8565b50505050565b600080600160801b8310620004bd57608092831c92620004ba908262000742565b90505b680100000000000000008310620004e357604092831c92620004e0908262000742565b90505b64010000000083106200050557602092831c9262000502908262000742565b90505b6201000083106200052557601092831c9262000522908262000742565b90505b61010083106200054457600892831c9262000541908262000742565b90505b601083106200056257600492831c926200055f908262000742565b90505b600483106200058057600292831c926200057d908262000742565b90505b600283106200059e57600192831c926200059b908262000742565b90505b60405181907f909c57d5c6ac08245cf2a6de3900e2b868513fa59099b92b27d8db823d92df9c90600090a292915050565b6000620005dd82846200075d565b9392505050565b600e5460009081526017602090815260408083206010548452825280832085845290915290206200061890826002620006ac565b505050565b8280546200062b9062000774565b90600052602060002090601f0160209004810192826200064f57600085556200069a565b82601f106200066a57805160ff19168380011785556200069a565b828001600101855582156200069a579182015b828111156200069a5782518255916020019190600101906200067d565b50620006a8929150620006dc565b5090565b82600281019282156200069a57916020028201828111156200069a5782518255916020019190600101906200067d565b5b80821115620006a85760008155600101620006dd565b6000806000806080858703121562000709578384fd5b845160208601516040870151606088015192965090945092506001600160a01b038116811462000737578182fd5b939692955090935050565b60008219821115620007585762000758620007e6565b500190565b6000826200076f576200076f620007fc565b500490565b6002810460018216806200078957607f821691505b60208210811415620007ab57634e487b7160e01b600052602260045260246000fd5b50919050565b6000600019821415620007c857620007c8620007e6565b5060010190565b600082620007e157620007e1620007fc565b500690565b634e487b7160e01b600052601160045260246000fd5b634e487b7160e01b600052601260045260246000fd5b6138a880620008226000396000f3fe60806040523480156200001157600080fd5b5060043610620002985760003560e01c806370a082311162000165578063b6672a3a11620000cf578063b6672a3a1462000616578063b88d4fde1462000624578063bd2f135a146200063b578063c87b56dd1462000652578063c892fffc1462000669578063caccde2a1462000680578063d0def521146200068a578063d539139314620006a1578063d547741f14620006b8578063d65ab5f214620006cf578063dc31beb614620006d9578063e985e9c514620006e35762000298565b806370a0823114620004f957806375b5e92414620005105780637b163d35146200051a5780637d659a48146200053157806387e7ae5c146200055457806391d14854146200055e57806395d89b41146200057557806398b9b236146200057f5780639ce9c7b614620005a2578063a217fddf14620005ce578063a22cb46514620005d7578063b55b8ceb14620005ee5762000298565b806336568abe116200020757806336568abe14620003f857806337070dde146200040f57806342842e0e146200041957806348b336cb14620004305780634e18b6f5146200045c5780635456bf13146200046657806359360c04146200047d5780635e6894fc1462000494578063617aa03014620004b757806362025ca414620004ce5780636352211e14620004d85780636b4d1f0c14620004ef5762000298565b806301041fa5146200029d57806301ffc9a714620002ba578063056524ea14620002e257806306fdde03146200030a578063081812fc1462000323578063095ea7b314620003535780630b72d951146200036c5780630bb78ec114620003765780631095b4df146200038d57806323b872dd14620003a4578063248a9ca314620003bb5780632f2ff15d14620003e1575b600080fd5b620002a760145481565b6040519081526020015b60405180910390f35b620002d1620002cb36600462002660565b620006fa565b6040519015158152602001620002b1565b620002a77f2a0f2a070eb463d9807435b07a6dbfeede905dd039b03efc105c79daf0c8434881565b620003146200070f565b604051620002b1919062002851565b6200033a6200033436600462002622565b620007a9565b6040516001600160a01b039091168152602001620002b1565b6200036a62000364366004620025f6565b62000839565b005b620002a760125481565b620003146200038736600462002622565b62000955565b620002a76200039e36600462002622565b620009f7565b6200036a620003b5366004620024a6565b62000a11565b620002a7620003cc36600462002622565b60009081526006602052604090206001015490565b6200036a620003f23660046200263b565b62000a49565b6200036a620004093660046200263b565b62000a74565b620002a760135481565b6200036a6200042a366004620024a6565b62000af6565b6200033a6200044136600462002622565b6018602052600090815260409020546001600160a01b031681565b620002a760155481565b620002a76200047736600462002622565b62000b13565b6200033a6200048e3660046200269e565b62000c44565b620002a7620004a536600462002622565b60096020526000908152604090205481565b620002a7620004c8366004620026ff565b62000d7c565b620002a760105481565b6200033a620004e936600462002622565b62000dae565b6200036a62000e27565b620002a76200050a36600462002452565b62000f12565b6200036a62000f9b565b620002a76200052b366004620026ff565b6200106d565b620002a76200054236600462002452565b600c6020526000908152604090205481565b6200036a62001188565b620002d16200056f3660046200263b565b62001370565b620003146200139b565b620002a76200059036600462002622565b600d6020526000908152604090205481565b6200033a620005b336600462002622565b600b602052600090815260409020546001600160a01b031681565b620002a7600081565b6200036a620005e836600462002567565b620013ac565b620002a77fa9c8c3e87c79e0da85cf2d427e2102d48db1379529b967d6604d431f1437723f81565b601654620002d19060ff1681565b6200036a62000635366004620024e6565b6200147d565b620002a76200064c36600462002721565b620014b6565b620003146200066336600462002622565b620014f6565b620002d16200067a36600462002452565b620015c9565b620002a760115481565b620002a76200069b366004620025a5565b62001690565b620002a76000805160206200385383398151915281565b6200036a620006c93660046200263b565b6200178e565b6200036a620017b8565b620002a7600f5481565b620002d1620006f43660046200246f565b620017e6565b6000620007078262001829565b90505b919050565b606060008054620007209062002a12565b80601f01602080910402602001604051908101604052809291908181526020018280546200074e9062002a12565b80156200079f5780601f1062000773576101008083540402835291602001916200079f565b820191906000526020600020905b8154815290600101906020018083116200078157829003601f168201915b5050505050905090565b6000620007b68262001851565b6200081d5760405162461bcd60e51b815260206004820152602c60248201527f4552433732313a20617070726f76656420717565727920666f72206e6f6e657860448201526b34b9ba32b73a103a37b5b2b760a11b60648201526084015b60405180910390fd5b506000908152600460205260409020546001600160a01b031690565b6000620008468262000dae565b9050806001600160a01b0316836001600160a01b03161415620008b65760405162461bcd60e51b815260206004820152602160248201527f4552433732313a20617070726f76616c20746f2063757272656e74206f776e656044820152603960f91b606482015260840162000814565b336001600160a01b0382161480620008d55750620008d58133620006f4565b620009445760405162461bcd60e51b815260206004820152603860248201527f4552433732313a20617070726f76652063616c6c6572206973206e6f74206f776044820152771b995c881b9bdc88185c1c1c9bdd995908199bdc88185b1b60421b606482015260840162000814565b6200095083836200186e565b505050565b60086020526000908152604090208054620009709062002a12565b80601f01602080910402602001604051908101604052809291908181526020018280546200099e9062002a12565b8015620009ef5780601f10620009c357610100808354040283529160200191620009ef565b820191906000526020600020905b815481529060010190602001808311620009d157829003601f168201915b505050505081565b60008062000a058362000b13565b600f8190559392505050565b62000a1d3382620018de565b62000a3c5760405162461bcd60e51b81526004016200081490620028e5565b62000950838383620019b4565b60008281526006602052604090206001015462000a6881335b62001b60565b62000950838362001bcf565b6001600160a01b038116331462000ae65760405162461bcd60e51b815260206004820152602f60248201527f416363657373436f6e74726f6c3a2063616e206f6e6c792072656e6f756e636560448201526e103937b632b9903337b91039b2b63360891b606482015260840162000814565b62000af2828262001c59565b5050565b62000950838383604051806020016040528060008152506200147d565b600080600160801b831062000b3757608092831c9262000b34908262002951565b90505b600160401b831062000b5857604092831c9262000b55908262002951565b90505b640100000000831062000b7a57602092831c9262000b77908262002951565b90505b62010000831062000b9a57601092831c9262000b97908262002951565b90505b610100831062000bb957600892831c9262000bb6908262002951565b90505b6010831062000bd757600492831c9262000bd4908262002951565b90505b6004831062000bf557600292831c9262000bf2908262002951565b90505b6002831062000c1357600192831c9262000c10908262002951565b90505b60405181907f909c57d5c6ac08245cf2a6de3900e2b868513fa59099b92b27d8db823d92df9c90600090a292915050565b600062000c52813362001370565b62000c945760405162461bcd60e51b81526020600482015260116024820152702737ba103232b330bab63a1030b236b4b760791b604482015260640162000814565b600062000ca2308562001690565b600a5460405191925060009130916001600160a01b03169062000cc590620022b8565b6001600160a01b03928316815291166020820152604001604051809103906000f08015801562000cf9573d6000803e3d6000fd5b50905081816001600160a01b03167fef9c0462f3702100d0fe56e120e5d1bad81b72afa45ef3a6fcd7b40e4e6d8b0660405160405180910390a36000828152600b6020818152604080842080546001600160a01b0319166001600160a01b0396871690811782558552600c83529084208690559490925290529054169392505050565b6019602052816000526040600020818154811062000d9957600080fd5b90600052602060002001600091509150505481565b6000818152600260205260408120546001600160a01b031680620007075760405162461bcd60e51b815260206004820152602960248201527f4552433732313a206f776e657220717565727920666f72206e6f6e657869737460448201526832b73a103a37b5b2b760b91b606482015260840162000814565b600062000e4f600262000e486010546015546200181490919063ffffffff16565b9062001814565b905060006001815b83811162000f0c5762000e7f8160405180604001604052808681526020018581525062001cc3565b6000828152600b6020908152604080832054868452928190205490518481526001600160a01b0393841693909116917fbbcbae1c475b8de12a83d866f05a6c253f2af9b5a7e299aa0d6f9fc50fb66e1e910160405180910390a362000ee682600162002951565b925062000ef583600162002951565b91508062000f038162002a4f565b91505062000e57565b50505050565b60006001600160a01b03821662000f7f5760405162461bcd60e51b815260206004820152602a60248201527f4552433732313a2062616c616e636520717565727920666f7220746865207a65604482015269726f206164647265737360b01b606482015260840162000814565b506001600160a01b031660009081526003602052604090205490565b600062000fb66010546014546200181490919063ffffffff16565b90506000816001600160401b0381111562000fe157634e487b7160e01b600052604160045260246000fd5b6040519080825280602002602001820160405280156200100b578160200160208202803683370190505b50905060005b6200101e83600262001814565b81116200095057600062001035601054836200106d565b601054600090815260196020908152604082208054600181018255908352912001555080620010648162002a4f565b91505062001011565b600e5460009081526017602090815260408083208584528252808320848452909152808220815180830192839052839290919060029082845b815481526020019060010190808311620010a657505050505090506000600d600083600160028110620010e957634e487b7160e01b600052603260045260246000fd5b6020020151815260200190815260200160002054600d6000846000600281106200112357634e487b7160e01b600052603260045260246000fd5b602002015181526020019081526020016000205411620011485760208201516200114b565b81515b6020830151835160405192935083927fd88c4bce48d5c365fe27f4e457535f707eb3bc75d09174008a1cdccf5311a27190600090a4949350505050565b601080549060006200119a8362002a4f565b91905055506000805b600481101562000af25762001275816040518060400160405280601960006001601054620011d29190620029af565b815260200190815260200160002086815481106200120057634e487b7160e01b600052603260045260246000fd5b90600052602060002001548152602001601960006001601054620012259190620029af565b815260200190815260200160002086600162001242919062002951565b815481106200126157634e487b7160e01b600052603260045260246000fd5b906000526020600020015481525062001cc3565b6019600060016010546200128a9190620029af565b8152602001908152602001600020826001620012a7919062002951565b81548110620012c657634e487b7160e01b600052603260045260246000fd5b9060005260206000200154601960006001601054620012e69190620029af565b815260200190815260200160002083815481106200131457634e487b7160e01b600052603260045260246000fd5b9060005260206000200154827f419fa4332d807bbd2b7b6e6bdee06a3482d989ec73eaf98f0ce5d0e874914e9e60405160405180910390a46200135960028362002951565b915080620013678162002a4f565b915050620011a3565b60009182526006602090815260408084206001600160a01b0393909316845291905290205460ff1690565b606060018054620007209062002a12565b6001600160a01b038216331415620014035760405162461bcd60e51b815260206004820152601960248201527822a9219b99189d1030b8383937bb32903a379031b0b63632b960391b604482015260640162000814565b3360008181526005602090815260408083206001600160a01b0387168085529252909120805460ff1916841515179055906001600160a01b03167f17307eab39ab6107e8899845ad3d59bd9653f200f220920489ca2b5937696c318360405162001471911515815260200190565b60405180910390a35050565b620014893383620018de565b620014a85760405162461bcd60e51b81526004016200081490620028e5565b62000f0c8484848462001cf7565b60176020528360005260406000206020528260005260406000206020528160005260406000208160028110620014eb57600080fd5b015493508492505050565b6060620015038262001851565b620015225760405162461bcd60e51b81526004016200081490620028b8565b600082815260086020526040812080546200153d9062002a12565b80601f01602080910402602001604051908101604052809291908181526020018280546200156b9062002a12565b8015620015bc5780601f106200159057610100808354040283529160200191620015bc565b820191906000526020600020905b8154815290600101906020018083116200159e57829003601f168201915b5093979650505050505050565b60408051600481526024810182526020810180516001600160e01b031663bbf6061b60e01b1790529051600091829182916001600160a01b0386169162001611919062002781565b6000604051808303816000865af19150503d806000811462001650576040519150601f19603f3d011682016040523d82523d6000602084013e62001655565b606091505b509150915081156200168957600081806020019051810190620016799190620026e6565b905062001687858262001d31565b505b5092915050565b6000620016ad600080516020620038538339815191523362001370565b620017055760405162461bcd60e51b815260206004820152602160248201527f3732314d696e743a206163636f756e742069736e74204d696e74657220726f6c6044820152606560f81b606482015260840162000814565b6200171a836200171460075490565b62001d74565b6200172f6200172860075490565b8362001eaf565b60006200173b60075490565b90506200174c600780546001019055565b7f9e0bfaf38878aad3ebd19b8c8065288eb130f0499a7378363d4652515588ac9681846040516200177f92919062002936565b60405180910390a19392505050565b600082815260066020526040902060010154620017ac813362000a62565b62000950838362001c59565b60165460ff1615620017c957600080fd5b436011556016805460ff19166001179055620017e462000e27565b565b6001600160a01b03918216600090815260056020908152604080832093909416825291909152205460ff1690565b60006200182282846200296c565b9392505050565b60006001600160e01b03198216637965db0b60e01b1480620007075750620007078262001f55565b6000908152600260205260409020546001600160a01b0316151590565b600081815260046020526040902080546001600160a01b0319166001600160a01b0384169081179091558190620018a58262000dae565b6001600160a01b03167f8c5be1e5ebec7d5bd14f71427d1e84f3dd0314c0f7b2291e5b200ac8c7c3b92560405160405180910390a45050565b6000620018eb8262001851565b6200194e5760405162461bcd60e51b815260206004820152602c60248201527f4552433732313a206f70657261746f7220717565727920666f72206e6f6e657860448201526b34b9ba32b73a103a37b5b2b760a11b606482015260840162000814565b60006200195b8362000dae565b9050806001600160a01b0316846001600160a01b03161480620019995750836001600160a01b03166200198e84620007a9565b6001600160a01b0316145b80620019ac5750620019ac8185620017e6565b949350505050565b826001600160a01b0316620019c98262000dae565b6001600160a01b03161462001a335760405162461bcd60e51b815260206004820152602960248201527f4552433732313a207472616e73666572206f6620746f6b656e2074686174206960448201526839903737ba1037bbb760b91b606482015260840162000814565b6001600160a01b03821662001a975760405162461bcd60e51b8152602060048201526024808201527f4552433732313a207472616e7366657220746f20746865207a65726f206164646044820152637265737360e01b606482015260840162000814565b62001aa46000826200186e565b6001600160a01b038316600090815260036020526040812080546001929062001acf908490620029af565b90915550506001600160a01b038216600090815260036020526040812080546001929062001aff90849062002951565b909155505060008181526002602052604080822080546001600160a01b0319166001600160a01b0386811691821790925591518493918716917fddf252ad1be2c89b69c2b068fc378daa952ba7f163c4a11628f55a4df523b3ef91a4505050565b62001b6c828262001370565b62000af25762001b87816001600160a01b0316601462001fa8565b62001b9483602062001fa8565b60405160200162001ba79291906200279f565b60408051601f198184030181529082905262461bcd60e51b8252620008149160040162002851565b62001bdb828262001370565b62000af25760008281526006602090815260408083206001600160a01b03851684529091529020805460ff1916600117905562001c153390565b6001600160a01b0316816001600160a01b0316837f2f8788117e7eff1d82e926ec794901d17c78024a50270940304540a733656f0d60405160405180910390a45050565b62001c65828262001370565b1562000af25760008281526006602090815260408083206001600160a01b0385168085529252808320805460ff1916905551339285917ff6391f5c32d9c69d2a47ea670b442974b53935d1edc7fd64eb21e047a839171b9190a45050565b600e5460009081526017602090815260408083206010548452825280832085845290915290206200095090826002620022c6565b62001d04848484620019b4565b62001d12848484846200219d565b62000f0c5760405162461bcd60e51b8152600401620008149062002866565b6001600160a01b0382166000908152600c6020908152604080832054808452600d909252822080549192849262001d6a90849062002951565b9091555050505050565b6001600160a01b03821662001dcc5760405162461bcd60e51b815260206004820181905260248201527f4552433732313a206d696e7420746f20746865207a65726f2061646472657373604482015260640162000814565b62001dd78162001851565b1562001e265760405162461bcd60e51b815260206004820152601c60248201527f4552433732313a20746f6b656e20616c7265616479206d696e74656400000000604482015260640162000814565b6001600160a01b038216600090815260036020526040812080546001929062001e5190849062002951565b909155505060008181526002602052604080822080546001600160a01b0319166001600160a01b03861690811790915590518392907fddf252ad1be2c89b69c2b068fc378daa952ba7f163c4a11628f55a4df523b3ef908290a45050565b62001eca600080516020620038538339815191523362001370565b62001f0a5760405162461bcd60e51b815260206004820152600f60248201526e4e6f74204d696e74657220526f6c6560881b604482015260640162000814565b62001f158262001851565b62001f345760405162461bcd60e51b81526004016200081490620028b8565b60008281526008602090815260409091208251620009509284019062002309565b60006001600160e01b031982166380ac58cd60e01b148062001f8757506001600160e01b03198216635b5e139f60e01b145b806200070757506301ffc9a760e01b6001600160e01b031983161462000707565b6060600062001fb98360026200298d565b62001fc690600262002951565b6001600160401b0381111562001fec57634e487b7160e01b600052604160045260246000fd5b6040519080825280601f01601f19166020018201604052801562002017576020820181803683370190505b509050600360fc1b816000815181106200204157634e487b7160e01b600052603260045260246000fd5b60200101906001600160f81b031916908160001a905350600f60fb1b816001815181106200207f57634e487b7160e01b600052603260045260246000fd5b60200101906001600160f81b031916908160001a9053506000620020a58460026200298d565b620020b290600162002951565b90505b60018111156200214c576f181899199a1a9b1b9c1cb0b131b232b360811b85600f1660108110620020f657634e487b7160e01b600052603260045260246000fd5b1a60f81b8282815181106200211b57634e487b7160e01b600052603260045260246000fd5b60200101906001600160f81b031916908160001a90535060049490941c936200214481620029f8565b9050620020b5565b508315620018225760405162461bcd60e51b815260206004820181905260248201527f537472696e67733a20686578206c656e67746820696e73756666696369656e74604482015260640162000814565b60006001600160a01b0384163b15620022ad57604051630a85bd0160e11b81526001600160a01b0385169063150b7a0290620021e490339089908890889060040162002812565b602060405180830381600087803b158015620021ff57600080fd5b505af192505050801562002232575060408051601f3d908101601f191682019092526200222f918101906200267f565b60015b62002292573d80801562002263576040519150601f19603f3d011682016040523d82523d6000602084013e62002268565b606091505b5080516200228a5760405162461bcd60e51b8152600401620008149062002866565b805181602001fd5b6001600160e01b031916630a85bd0160e11b149050620019ac565b506001949350505050565b610d9f8062002ab483390190565b8260028101928215620022f7579160200282015b82811115620022f7578251825591602001919060010190620022da565b506200230592915062002385565b5090565b828054620023179062002a12565b90600052602060002090601f0160209004810192826200233b5760008555620022f7565b82601f106200235657805160ff1916838001178555620022f7565b82800160010185558215620022f75791820182811115620022f7578251825591602001919060010190620022da565b5b8082111562002305576000815560010162002386565b60006001600160401b0380841115620023b957620023b962002a83565b604051601f8501601f19908116603f01168101908282118183101715620023e457620023e462002a83565b81604052809350858152868686011115620023fe57600080fd5b858560208301376000602087830101525050509392505050565b80356001600160a01b03811681146200070a57600080fd5b600082601f83011262002441578081fd5b62001822838335602085016200239c565b60006020828403121562002464578081fd5b620018228262002418565b6000806040838503121562002482578081fd5b6200248d8362002418565b91506200249d6020840162002418565b90509250929050565b600080600060608486031215620024bb578081fd5b620024c68462002418565b9250620024d66020850162002418565b9150604084013590509250925092565b60008060008060808587031215620024fc578081fd5b620025078562002418565b9350620025176020860162002418565b92506040850135915060608501356001600160401b0381111562002539578182fd5b8501601f810187136200254a578182fd5b6200255b878235602084016200239c565b91505092959194509250565b600080604083850312156200257a578182fd5b620025858362002418565b9150602083013580151581146200259a578182fd5b809150509250929050565b60008060408385031215620025b8578182fd5b620025c38362002418565b915060208301356001600160401b03811115620025de578182fd5b620025ec8582860162002430565b9150509250929050565b6000806040838503121562002609578182fd5b620026148362002418565b946020939093013593505050565b60006020828403121562002634578081fd5b5035919050565b600080604083850312156200264e578182fd5b823591506200249d6020840162002418565b60006020828403121562002672578081fd5b8135620018228162002a99565b60006020828403121562002691578081fd5b8151620018228162002a99565b60008060408385031215620026b1578182fd5b82356001600160401b03811115620026c7578283fd5b620026d58582860162002430565b9250506200249d6020840162002418565b600060208284031215620026f8578081fd5b5051919050565b6000806040838503121562002712578182fd5b50508035926020909101359150565b6000806000806080858703121562002737578182fd5b5050823594602084013594506040840135936060013592509050565b600081518084526200276d816020860160208601620029c9565b601f01601f19169290920160200192915050565b6000825162002795818460208701620029c9565b9190910192915050565b600076020b1b1b2b9b9a1b7b73a3937b61d1030b1b1b7bab73a1604d1b82528351620027d3816017850160208801620029c9565b7001034b99036b4b9b9b4b733903937b6329607d1b601791840191820152835162002806816028840160208801620029c9565b01602801949350505050565b6001600160a01b0385811682528416602082015260408101839052608060608201819052600090620028479083018462002753565b9695505050505050565b60006020825262001822602083018462002753565b60208082526032908201527f4552433732313a207472616e7366657220746f206e6f6e20455243373231526560408201527131b2b4bb32b91034b6b83632b6b2b73a32b960711b606082015260800190565b602080825260139082015272139195081a5908191bdcd95b9d08195e1a5cdd606a1b604082015260600190565b60208082526031908201527f4552433732313a207472616e736665722063616c6c6572206973206e6f74206f6040820152701ddb995c881b9bdc88185c1c1c9bdd9959607a1b606082015260800190565b600083825260406020830152620019ac604083018462002753565b6000821982111562002967576200296762002a6d565b500190565b6000826200298857634e487b7160e01b81526012600452602481fd5b500490565b6000816000190483118215151615620029aa57620029aa62002a6d565b500290565b600082821015620029c457620029c462002a6d565b500390565b60005b83811015620029e6578181015183820152602001620029cc565b8381111562000f0c5750506000910152565b60008162002a0a5762002a0a62002a6d565b506000190190565b60028104600182168062002a2757607f821691505b6020821081141562002a4957634e487b7160e01b600052602260045260246000fd5b50919050565b600060001982141562002a665762002a6662002a6d565b5060010190565b634e487b7160e01b600052601160045260246000fd5b634e487b7160e01b600052604160045260246000fd5b6001600160e01b03198116811462002ab057600080fd5b5056fe6080604052600380546001600160a01b0319167382f67958a5474e40e1485742d648c0b0686b6e5d17905534801561003657600080fd5b50604051610d9f380380610d9f83398101604081905261005591610159565b610060600033610091565b600280546001600160a01b039384166001600160a01b0319918216179091556001805492909316911617905561018b565b61009b828261009f565b5050565b6000828152602081815260408083206001600160a01b038516845290915290205460ff1661009b576000828152602081815260408083206001600160a01b03851684529091529020805460ff191660011790556100f93390565b6001600160a01b0316816001600160a01b0316837f2f8788117e7eff1d82e926ec794901d17c78024a50270940304540a733656f0d60405160405180910390a45050565b80516001600160a01b038116811461015457600080fd5b919050565b6000806040838503121561016b578182fd5b6101748361013d565b91506101826020840161013d565b90509250929050565b610c058061019a6000396000f3fe6080604052600436106100905760003560e01c806301ffc9a7146100e6578063248a9ca31461011b5780632a3ac08c146101595780632f2ff15d1461018d57806336568abe146101af57806391d14854146101cf578063a217fddf146101ef578063bbf6061b14610204578063c3fe3e2814610219578063d547741f14610246578063f4b9fa7514610266576100e1565b366100e1576003546001600160a01b031633146100ac57600080fd5b6040513481527f8183b826af1aa1b488f7fba9edba0457b6808fd87ee197e08191736a5a9066799060200160405180910390a1005b600080fd5b3480156100f257600080fd5b50610106610101366004610a2c565b610286565b60405190151581526020015b60405180910390f35b34801561012757600080fd5b5061014b6101363660046109da565b60009081526020819052604090206001015490565b604051908152602001610112565b34801561016557600080fd5b5061014b7fe39604301a5df21de489c846135593d1f32826f514afa2544bdbe9ace2bfae4a81565b34801561019957600080fd5b506101ad6101a83660046109f2565b6102bd565b005b3480156101bb57600080fd5b506101ad6101ca3660046109f2565b6102e9565b3480156101db57600080fd5b506101066101ea3660046109f2565b61036c565b3480156101fb57600080fd5b5061014b600081565b34801561021057600080fd5b5061014b610395565b34801561022557600080fd5b50600254610239906001600160a01b031681565b6040516101129190610adb565b34801561025257600080fd5b506101ad6102613660046109f2565b61065e565b34801561027257600080fd5b50600154610239906001600160a01b031681565b60006001600160e01b03198216637965db0b60e01b14806102b757506301ffc9a760e01b6001600160e01b03198316145b92915050565b6000828152602081905260409020600101546102da81335b610684565b6102e483836106e8565b505050565b6001600160a01b038116331461035e5760405162461bcd60e51b815260206004820152602f60248201527f416363657373436f6e74726f6c3a2063616e206f6e6c792072656e6f756e636560448201526e103937b632b9903337b91039b2b63360891b60648201526084015b60405180910390fd5b610368828261076c565b5050565b6000918252602082815260408084206001600160a01b0393909316845291905290205460ff1690565b6001546040516370a0823160e01b815260009182916001600160a01b03909116906370a08231906103ca903090600401610adb565b60206040518083038186803b1580156103e257600080fd5b505afa1580156103f6573d6000803e3d6000fd5b505050506040513d601f19601f8201168201806040525081019061041a9190610a54565b6001546002546040516370a0823160e01b81529293506001600160a01b039182169263095ea7b3929091169083906370a082319061045c903090600401610adb565b60206040518083038186803b15801561047457600080fd5b505afa158015610488573d6000803e3d6000fd5b505050506040513d601f19601f820116820180604052508101906104ac9190610a54565b6040518363ffffffff1660e01b81526004016104c9929190610aef565b602060405180830381600087803b1580156104e357600080fd5b505af11580156104f7573d6000803e3d6000fd5b505050506040513d601f19601f8201168201806040525081019061051b91906109ba565b61052457600080fd5b6001546002546040516370a0823160e01b81526001600160a01b039283169263a9059cbb92169083906370a0823190610561903090600401610adb565b60206040518083038186803b15801561057957600080fd5b505afa15801561058d573d6000803e3d6000fd5b505050506040513d601f19601f820116820180604052508101906105b19190610a54565b6040518363ffffffff1660e01b81526004016105ce929190610aef565b602060405180830381600087803b1580156105e857600080fd5b505af11580156105fc573d6000803e3d6000fd5b505050506040513d601f19601f8201168201806040525081019061062091906109ba565b506002546040516001600160a01b03909116907fbdd983d6baf07aab2a84779f0fc201c6bf84ab638ad825fa90e0e370f04c39df90600090a2905090565b60008281526020819052604090206001015461067a81336102d5565b6102e4838361076c565b61068e828261036c565b610368576106a6816001600160a01b031660146107d1565b6106b18360206107d1565b6040516020016106c2929190610a6c565b60408051601f198184030181529082905262461bcd60e51b825261035591600401610b08565b6106f2828261036c565b610368576000828152602081815260408083206001600160a01b03851684529091529020805460ff191660011790556107283390565b6001600160a01b0316816001600160a01b0316837f2f8788117e7eff1d82e926ec794901d17c78024a50270940304540a733656f0d60405160405180910390a45050565b610776828261036c565b15610368576000828152602081815260408083206001600160a01b0385168085529252808320805460ff1916905551339285917ff6391f5c32d9c69d2a47ea670b442974b53935d1edc7fd64eb21e047a839171b9190a45050565b606060006107e0836002610b53565b6107eb906002610b3b565b67ffffffffffffffff81111561081157634e487b7160e01b600052604160045260246000fd5b6040519080825280601f01601f19166020018201604052801561083b576020820181803683370190505b509050600360fc1b8160008151811061086457634e487b7160e01b600052603260045260246000fd5b60200101906001600160f81b031916908160001a905350600f60fb1b816001815181106108a157634e487b7160e01b600052603260045260246000fd5b60200101906001600160f81b031916908160001a90535060006108c5846002610b53565b6108d0906001610b3b565b90505b6001811115610964576f181899199a1a9b1b9c1cb0b131b232b360811b85600f166010811061091257634e487b7160e01b600052603260045260246000fd5b1a60f81b82828151811061093657634e487b7160e01b600052603260045260246000fd5b60200101906001600160f81b031916908160001a90535060049490941c9361095d81610ba2565b90506108d3565b5083156109b35760405162461bcd60e51b815260206004820181905260248201527f537472696e67733a20686578206c656e67746820696e73756666696369656e746044820152606401610355565b9392505050565b6000602082840312156109cb578081fd5b815180151581146109b3578182fd5b6000602082840312156109eb578081fd5b5035919050565b60008060408385031215610a04578081fd5b8235915060208301356001600160a01b0381168114610a21578182fd5b809150509250929050565b600060208284031215610a3d578081fd5b81356001600160e01b0319811681146109b3578182fd5b600060208284031215610a65578081fd5b5051919050565b600076020b1b1b2b9b9a1b7b73a3937b61d1030b1b1b7bab73a1604d1b82528351610a9e816017850160208801610b72565b7001034b99036b4b9b9b4b733903937b6329607d1b6017918401918201528351610acf816028840160208801610b72565b01602801949350505050565b6001600160a01b0391909116815260200190565b6001600160a01b03929092168252602082015260400190565b6000602082528251806020840152610b27816040850160208701610b72565b601f01601f19169190910160400192915050565b60008219821115610b4e57610b4e610bb9565b500190565b6000816000190483118215151615610b6d57610b6d610bb9565b500290565b60005b83811015610b8d578181015183820152602001610b75565b83811115610b9c576000848401525b50505050565b600081610bb157610bb1610bb9565b506000190190565b634e487b7160e01b600052601160045260246000fdfea2646970667358221220acbbc14df6017aa0fc72b3eb21b5407c5b603410c4694e5704a9b1f8689c4cdb64736f6c634300080200339f2df0fed2c77648de5860a4cc508cd0818c85b8b8a1ab4ceeef8d981c8956a6a2646970667358221220f031074d2836c81300eb970d0e026374e2145d970397376640e1e63bc206189b64736f6c63430008020033",
  "devdoc": {
    "kind": "dev",
    "methods": {
      "approve(address,uint256)": {
        "details": "See {IERC721-approve}."
      },
      "balanceOf(address)": {
        "details": "See {IERC721-balanceOf}."
      },
      "getApproved(uint256)": {
        "details": "See {IERC721-getApproved}."
      },
      "getRoleAdmin(bytes32)": {
        "details": "Returns the admin role that controls `role`. See {grantRole} and {revokeRole}. To change a role's admin, use {_setRoleAdmin}."
      },
      "grantRole(bytes32,address)": {
        "details": "Grants `role` to `account`. If `account` had not been already granted `role`, emits a {RoleGranted} event. Requirements: - the caller must have ``role``'s admin role."
      },
      "hasRole(bytes32,address)": {
        "details": "Returns `true` if `account` has been granted `role`."
      },
      "isApprovedForAll(address,address)": {
        "details": "See {IERC721-isApprovedForAll}."
      },
      "name()": {
        "details": "See {IERC721Metadata-name}."
      },
      "ownerOf(uint256)": {
        "details": "See {IERC721-ownerOf}."
      },
      "renounceRole(bytes32,address)": {
        "details": "Revokes `role` from the calling account. Roles are often managed via {grantRole} and {revokeRole}: this function's purpose is to provide a mechanism for accounts to lose their privileges if they are compromised (such as when a trusted device is misplaced). If the calling account had been granted `role`, emits a {RoleRevoked} event. Requirements: - the caller must be `account`."
      },
      "revokeRole(bytes32,address)": {
        "details": "Revokes `role` from `account`. If `account` had been granted `role`, emits a {RoleRevoked} event. Requirements: - the caller must have ``role``'s admin role."
      },
      "safeTransferFrom(address,address,uint256)": {
        "details": "See {IERC721-safeTransferFrom}."
      },
      "safeTransferFrom(address,address,uint256,bytes)": {
        "details": "See {IERC721-safeTransferFrom}."
      },
      "setApprovalForAll(address,bool)": {
        "details": "See {IERC721-setApprovalForAll}."
      },
      "symbol()": {
        "details": "See {IERC721Metadata-symbol}."
      },
      "tokenURI(uint256)": {
        "details": "See {IERC721Metadata-tokenURI}."
      },
      "transferFrom(address,address,uint256)": {
        "details": "See {IERC721-transferFrom}."
      }
    },
    "version": 1
  },
  "userdoc": {
    "kind": "user",
    "methods": {},
    "version": 1
  },
  "storageLayout": {
    "storage": [
      {
        "astId": 12992,
        "contract": "contracts/zksync/Game.sol:Game",
        "label": "_name",
        "offset": 0,
        "slot": "0",
        "type": "t_string_storage"
      },
      {
        "astId": 12994,
        "contract": "contracts/zksync/Game.sol:Game",
        "label": "_symbol",
        "offset": 0,
        "slot": "1",
        "type": "t_string_storage"
      },
      {
        "astId": 12998,
        "contract": "contracts/zksync/Game.sol:Game",
        "label": "_owners",
        "offset": 0,
        "slot": "2",
        "type": "t_mapping(t_uint256,t_address)"
      },
      {
        "astId": 13002,
        "contract": "contracts/zksync/Game.sol:Game",
        "label": "_balances",
        "offset": 0,
        "slot": "3",
        "type": "t_mapping(t_address,t_uint256)"
      },
      {
        "astId": 13006,
        "contract": "contracts/zksync/Game.sol:Game",
        "label": "_tokenApprovals",
        "offset": 0,
        "slot": "4",
        "type": "t_mapping(t_uint256,t_address)"
      },
      {
        "astId": 13012,
        "contract": "contracts/zksync/Game.sol:Game",
        "label": "_operatorApprovals",
        "offset": 0,
        "slot": "5",
        "type": "t_mapping(t_address,t_mapping(t_address,t_bool))"
      },
      {
        "astId": 62,
        "contract": "contracts/zksync/Game.sol:Game",
        "label": "_roles",
        "offset": 0,
        "slot": "6",
        "type": "t_mapping(t_bytes32,t_struct(RoleData)57_storage)"
      },
      {
        "astId": 20067,
        "contract": "contracts/zksync/Game.sol:Game",
        "label": "_tokenIds",
        "offset": 0,
        "slot": "7",
        "type": "t_struct(Counter)16505_storage"
      },
      {
        "astId": 20074,
        "contract": "contracts/zksync/Game.sol:Game",
        "label": "_tokenURIs",
        "offset": 0,
        "slot": "8",
        "type": "t_mapping(t_uint256,t_string_storage)"
      },
      {
        "astId": 20078,
        "contract": "contracts/zksync/Game.sol:Game",
        "label": "_votesById",
        "offset": 0,
        "slot": "9",
        "type": "t_mapping(t_uint256,t_uint256)"
      },
      {
        "astId": 20241,
        "contract": "contracts/zksync/Game.sol:Game",
        "label": "dai",
        "offset": 0,
        "slot": "10",
        "type": "t_contract(IERC20)10880"
      },
      {
        "astId": 20262,
        "contract": "contracts/zksync/Game.sol:Game",
        "label": "donationAddressByNftId",
        "offset": 0,
        "slot": "11",
        "type": "t_mapping(t_uint256,t_address)"
      },
      {
        "astId": 20266,
        "contract": "contracts/zksync/Game.sol:Game",
        "label": "nftIdByDonationAddress",
        "offset": 0,
        "slot": "12",
        "type": "t_mapping(t_address,t_uint256)"
      },
      {
        "astId": 20270,
        "contract": "contracts/zksync/Game.sol:Game",
        "label": "votesPerNftId",
        "offset": 0,
        "slot": "13",
        "type": "t_mapping(t_uint256,t_uint256)"
      },
      {
        "astId": 20273,
        "contract": "contracts/zksync/Game.sol:Game",
        "label": "g_game_number",
        "offset": 0,
        "slot": "14",
        "type": "t_uint256"
      },
      {
        "astId": 20276,
        "contract": "contracts/zksync/Game.sol:Game",
        "label": "g_rounds",
        "offset": 0,
        "slot": "15",
        "type": "t_uint256"
      },
      {
        "astId": 20278,
        "contract": "contracts/zksync/Game.sol:Game",
        "label": "g_current_round",
        "offset": 0,
        "slot": "16",
        "type": "t_uint256"
      },
      {
        "astId": 20280,
        "contract": "contracts/zksync/Game.sol:Game",
        "label": "g_start_block",
        "offset": 0,
        "slot": "17",
        "type": "t_uint256"
      },
      {
        "astId": 20282,
        "contract": "contracts/zksync/Game.sol:Game",
        "label": "g_round_blocktime",
        "offset": 0,
        "slot": "18",
        "type": "t_uint256"
      },
      {
        "astId": 20284,
        "contract": "contracts/zksync/Game.sol:Game",
        "label": "g_intermission_blocktime",
        "offset": 0,
        "slot": "19",
        "type": "t_uint256"
      },
      {
        "astId": 20286,
        "contract": "contracts/zksync/Game.sol:Game",
        "label": "g_number_dancers",
        "offset": 0,
        "slot": "20",
        "type": "t_uint256"
      },
      {
        "astId": 20288,
        "contract": "contracts/zksync/Game.sol:Game",
        "label": "g_current_number_dancers",
        "offset": 0,
        "slot": "21",
        "type": "t_uint256"
      },
      {
        "astId": 20291,
        "contract": "contracts/zksync/Game.sol:Game",
        "label": "g_game_started",
        "offset": 0,
        "slot": "22",
        "type": "t_bool"
      },
      {
        "astId": 20301,
        "contract": "contracts/zksync/Game.sol:Game",
        "label": "gameByBracketByRound",
        "offset": 0,
        "slot": "23",
        "type": "t_mapping(t_uint256,t_mapping(t_uint256,t_mapping(t_uint256,t_array(t_uint256)2_storage)))"
      },
      {
        "astId": 20305,
        "contract": "contracts/zksync/Game.sol:Game",
        "label": "addressByNFTId",
        "offset": 0,
        "slot": "24",
        "type": "t_mapping(t_uint256,t_address)"
      },
      {
        "astId": 20562,
        "contract": "contracts/zksync/Game.sol:Game",
        "label": "winnersByRound",
        "offset": 0,
        "slot": "25",
        "type": "t_mapping(t_uint256,t_array(t_uint256)dyn_storage)"
      }
    ],
    "types": {
      "t_address": {
        "encoding": "inplace",
        "label": "address",
        "numberOfBytes": "20"
      },
      "t_array(t_uint256)2_storage": {
        "base": "t_uint256",
        "encoding": "inplace",
        "label": "uint256[2]",
        "numberOfBytes": "64"
      },
      "t_array(t_uint256)dyn_storage": {
        "base": "t_uint256",
        "encoding": "dynamic_array",
        "label": "uint256[]",
        "numberOfBytes": "32"
      },
      "t_bool": {
        "encoding": "inplace",
        "label": "bool",
        "numberOfBytes": "1"
      },
      "t_bytes32": {
        "encoding": "inplace",
        "label": "bytes32",
        "numberOfBytes": "32"
      },
      "t_contract(IERC20)10880": {
        "encoding": "inplace",
        "label": "contract IERC20",
        "numberOfBytes": "20"
      },
      "t_mapping(t_address,t_bool)": {
        "encoding": "mapping",
        "key": "t_address",
        "label": "mapping(address => bool)",
        "numberOfBytes": "32",
        "value": "t_bool"
      },
      "t_mapping(t_address,t_mapping(t_address,t_bool))": {
        "encoding": "mapping",
        "key": "t_address",
        "label": "mapping(address => mapping(address => bool))",
        "numberOfBytes": "32",
        "value": "t_mapping(t_address,t_bool)"
      },
      "t_mapping(t_address,t_uint256)": {
        "encoding": "mapping",
        "key": "t_address",
        "label": "mapping(address => uint256)",
        "numberOfBytes": "32",
        "value": "t_uint256"
      },
      "t_mapping(t_bytes32,t_struct(RoleData)57_storage)": {
        "encoding": "mapping",
        "key": "t_bytes32",
        "label": "mapping(bytes32 => struct AccessControl.RoleData)",
        "numberOfBytes": "32",
        "value": "t_struct(RoleData)57_storage"
      },
      "t_mapping(t_uint256,t_address)": {
        "encoding": "mapping",
        "key": "t_uint256",
        "label": "mapping(uint256 => address)",
        "numberOfBytes": "32",
        "value": "t_address"
      },
      "t_mapping(t_uint256,t_array(t_uint256)2_storage)": {
        "encoding": "mapping",
        "key": "t_uint256",
        "label": "mapping(uint256 => uint256[2])",
        "numberOfBytes": "32",
        "value": "t_array(t_uint256)2_storage"
      },
      "t_mapping(t_uint256,t_array(t_uint256)dyn_storage)": {
        "encoding": "mapping",
        "key": "t_uint256",
        "label": "mapping(uint256 => uint256[])",
        "numberOfBytes": "32",
        "value": "t_array(t_uint256)dyn_storage"
      },
      "t_mapping(t_uint256,t_mapping(t_uint256,t_array(t_uint256)2_storage))": {
        "encoding": "mapping",
        "key": "t_uint256",
        "label": "mapping(uint256 => mapping(uint256 => uint256[2]))",
        "numberOfBytes": "32",
        "value": "t_mapping(t_uint256,t_array(t_uint256)2_storage)"
      },
      "t_mapping(t_uint256,t_mapping(t_uint256,t_mapping(t_uint256,t_array(t_uint256)2_storage)))": {
        "encoding": "mapping",
        "key": "t_uint256",
        "label": "mapping(uint256 => mapping(uint256 => mapping(uint256 => uint256[2])))",
        "numberOfBytes": "32",
        "value": "t_mapping(t_uint256,t_mapping(t_uint256,t_array(t_uint256)2_storage))"
      },
      "t_mapping(t_uint256,t_string_storage)": {
        "encoding": "mapping",
        "key": "t_uint256",
        "label": "mapping(uint256 => string)",
        "numberOfBytes": "32",
        "value": "t_string_storage"
      },
      "t_mapping(t_uint256,t_uint256)": {
        "encoding": "mapping",
        "key": "t_uint256",
        "label": "mapping(uint256 => uint256)",
        "numberOfBytes": "32",
        "value": "t_uint256"
      },
      "t_string_storage": {
        "encoding": "bytes",
        "label": "string",
        "numberOfBytes": "32"
      },
      "t_struct(Counter)16505_storage": {
        "encoding": "inplace",
        "label": "struct Counters.Counter",
        "members": [
          {
            "astId": 16504,
            "contract": "contracts/zksync/Game.sol:Game",
            "label": "_value",
            "offset": 0,
            "slot": "0",
            "type": "t_uint256"
          }
        ],
        "numberOfBytes": "32"
      },
      "t_struct(RoleData)57_storage": {
        "encoding": "inplace",
        "label": "struct AccessControl.RoleData",
        "members": [
          {
            "astId": 54,
            "contract": "contracts/zksync/Game.sol:Game",
            "label": "members",
            "offset": 0,
            "slot": "0",
            "type": "t_mapping(t_address,t_bool)"
          },
          {
            "astId": 56,
            "contract": "contracts/zksync/Game.sol:Game",
            "label": "adminRole",
            "offset": 0,
            "slot": "1",
            "type": "t_bytes32"
          }
        ],
        "numberOfBytes": "64"
      },
      "t_uint256": {
        "encoding": "inplace",
        "label": "uint256",
        "numberOfBytes": "32"
      }
    }
  }
}