{
  "address": "0x5FbDB2315678afecb367f032d93F642f64180aa3",
  "abi": [
    {
      "inputs": [],
      "stateMutability": "nonpayable",
      "type": "constructor"
    },
    {
      "anonymous": false,
      "inputs": [
        {
          "indexed": true,
          "internalType": "address",
          "name": "owner",
          "type": "address"
        },
        {
          "indexed": true,
          "internalType": "address",
          "name": "approved",
          "type": "address"
        },
        {
          "indexed": true,
          "internalType": "uint256",
          "name": "tokenId",
          "type": "uint256"
        }
      ],
      "name": "Approval",
      "type": "event"
    },
    {
      "anonymous": false,
      "inputs": [
        {
          "indexed": true,
          "internalType": "address",
          "name": "owner",
          "type": "address"
        },
        {
          "indexed": true,
          "internalType": "address",
          "name": "operator",
          "type": "address"
        },
        {
          "indexed": false,
          "internalType": "bool",
          "name": "approved",
          "type": "bool"
        }
      ],
      "name": "ApprovalForAll",
      "type": "event"
    },
    {
      "anonymous": false,
      "inputs": [
        {
          "indexed": false,
          "internalType": "uint256",
          "name": "nftId",
          "type": "uint256"
        },
        {
          "indexed": false,
          "internalType": "string",
          "name": "uri",
          "type": "string"
        }
      ],
      "name": "NFTMinted",
      "type": "event"
    },
    {
      "anonymous": false,
      "inputs": [
        {
          "indexed": true,
          "internalType": "bytes32",
          "name": "role",
          "type": "bytes32"
        },
        {
          "indexed": true,
          "internalType": "bytes32",
          "name": "previousAdminRole",
          "type": "bytes32"
        },
        {
          "indexed": true,
          "internalType": "bytes32",
          "name": "newAdminRole",
          "type": "bytes32"
        }
      ],
      "name": "RoleAdminChanged",
      "type": "event"
    },
    {
      "anonymous": false,
      "inputs": [
        {
          "indexed": true,
          "internalType": "bytes32",
          "name": "role",
          "type": "bytes32"
        },
        {
          "indexed": true,
          "internalType": "address",
          "name": "account",
          "type": "address"
        },
        {
          "indexed": true,
          "internalType": "address",
          "name": "sender",
          "type": "address"
        }
      ],
      "name": "RoleGranted",
      "type": "event"
    },
    {
      "anonymous": false,
      "inputs": [
        {
          "indexed": true,
          "internalType": "bytes32",
          "name": "role",
          "type": "bytes32"
        },
        {
          "indexed": true,
          "internalType": "address",
          "name": "account",
          "type": "address"
        },
        {
          "indexed": true,
          "internalType": "address",
          "name": "sender",
          "type": "address"
        }
      ],
      "name": "RoleRevoked",
      "type": "event"
    },
    {
      "anonymous": false,
      "inputs": [
        {
          "indexed": true,
          "internalType": "address",
          "name": "from",
          "type": "address"
        },
        {
          "indexed": true,
          "internalType": "address",
          "name": "to",
          "type": "address"
        },
        {
          "indexed": true,
          "internalType": "uint256",
          "name": "tokenId",
          "type": "uint256"
        }
      ],
      "name": "Transfer",
      "type": "event"
    },
    {
      "inputs": [],
      "name": "DEFAULT_ADMIN_ROLE",
      "outputs": [
        {
          "internalType": "bytes32",
          "name": "",
          "type": "bytes32"
        }
      ],
      "stateMutability": "view",
      "type": "function"
    },
    {
      "inputs": [],
      "name": "MATIC_ROLE",
      "outputs": [
        {
          "internalType": "bytes32",
          "name": "",
          "type": "bytes32"
        }
      ],
      "stateMutability": "view",
      "type": "function"
    },
    {
      "inputs": [],
      "name": "MINTER_ROLE",
      "outputs": [
        {
          "internalType": "bytes32",
          "name": "",
          "type": "bytes32"
        }
      ],
      "stateMutability": "view",
      "type": "function"
    },
    {
      "inputs": [],
      "name": "ZKSYNC_ROLE",
      "outputs": [
        {
          "internalType": "bytes32",
          "name": "",
          "type": "bytes32"
        }
      ],
      "stateMutability": "view",
      "type": "function"
    },
    {
      "inputs": [
        {
          "internalType": "uint256",
          "name": "",
          "type": "uint256"
        }
      ],
      "name": "_tokenURIs",
      "outputs": [
        {
          "internalType": "string",
          "name": "",
          "type": "string"
        }
      ],
      "stateMutability": "view",
      "type": "function"
    },
    {
      "inputs": [
        {
          "internalType": "uint256",
          "name": "",
          "type": "uint256"
        }
      ],
      "name": "_votesById",
      "outputs": [
        {
          "internalType": "uint256",
          "name": "",
          "type": "uint256"
        }
      ],
      "stateMutability": "view",
      "type": "function"
    },
    {
      "inputs": [
        {
          "internalType": "address",
          "name": "to",
          "type": "address"
        },
        {
          "internalType": "uint256",
          "name": "tokenId",
          "type": "uint256"
        }
      ],
      "name": "approve",
      "outputs": [],
      "stateMutability": "nonpayable",
      "type": "function"
    },
    {
      "inputs": [
        {
          "internalType": "address",
          "name": "owner",
          "type": "address"
        }
      ],
      "name": "balanceOf",
      "outputs": [
        {
          "internalType": "uint256",
          "name": "",
          "type": "uint256"
        }
      ],
      "stateMutability": "view",
      "type": "function"
    },
    {
      "inputs": [
        {
          "internalType": "uint256",
          "name": "tokenId",
          "type": "uint256"
        }
      ],
      "name": "getApproved",
      "outputs": [
        {
          "internalType": "address",
          "name": "",
          "type": "address"
        }
      ],
      "stateMutability": "view",
      "type": "function"
    },
    {
      "inputs": [
        {
          "internalType": "bytes32",
          "name": "role",
          "type": "bytes32"
        }
      ],
      "name": "getRoleAdmin",
      "outputs": [
        {
          "internalType": "bytes32",
          "name": "",
          "type": "bytes32"
        }
      ],
      "stateMutability": "view",
      "type": "function"
    },
    {
      "inputs": [
        {
          "internalType": "bytes32",
          "name": "role",
          "type": "bytes32"
        },
        {
          "internalType": "address",
          "name": "account",
          "type": "address"
        }
      ],
      "name": "grantRole",
      "outputs": [],
      "stateMutability": "nonpayable",
      "type": "function"
    },
    {
      "inputs": [
        {
          "internalType": "bytes32",
          "name": "role",
          "type": "bytes32"
        },
        {
          "internalType": "address",
          "name": "account",
          "type": "address"
        }
      ],
      "name": "hasRole",
      "outputs": [
        {
          "internalType": "bool",
          "name": "",
          "type": "bool"
        }
      ],
      "stateMutability": "view",
      "type": "function"
    },
    {
      "inputs": [
        {
          "internalType": "address",
          "name": "owner",
          "type": "address"
        },
        {
          "internalType": "address",
          "name": "operator",
          "type": "address"
        }
      ],
      "name": "isApprovedForAll",
      "outputs": [
        {
          "internalType": "bool",
          "name": "",
          "type": "bool"
        }
      ],
      "stateMutability": "view",
      "type": "function"
    },
    {
      "inputs": [
        {
          "internalType": "address",
          "name": "to",
          "type": "address"
        },
        {
          "internalType": "string",
          "name": "tokenURI",
          "type": "string"
        }
      ],
      "name": "mint",
      "outputs": [
        {
          "internalType": "uint256",
          "name": "tokenID",
          "type": "uint256"
        }
      ],
      "stateMutability": "nonpayable",
      "type": "function"
    },
    {
      "inputs": [],
      "name": "name",
      "outputs": [
        {
          "internalType": "string",
          "name": "",
          "type": "string"
        }
      ],
      "stateMutability": "view",
      "type": "function"
    },
    {
      "inputs": [
        {
          "internalType": "uint256",
          "name": "tokenId",
          "type": "uint256"
        }
      ],
      "name": "ownerOf",
      "outputs": [
        {
          "internalType": "address",
          "name": "",
          "type": "address"
        }
      ],
      "stateMutability": "view",
      "type": "function"
    },
    {
      "inputs": [
        {
          "internalType": "bytes32",
          "name": "role",
          "type": "bytes32"
        },
        {
          "internalType": "address",
          "name": "account",
          "type": "address"
        }
      ],
      "name": "renounceRole",
      "outputs": [],
      "stateMutability": "nonpayable",
      "type": "function"
    },
    {
      "inputs": [
        {
          "internalType": "bytes32",
          "name": "role",
          "type": "bytes32"
        },
        {
          "internalType": "address",
          "name": "account",
          "type": "address"
        }
      ],
      "name": "revokeRole",
      "outputs": [],
      "stateMutability": "nonpayable",
      "type": "function"
    },
    {
      "inputs": [
        {
          "internalType": "address",
          "name": "from",
          "type": "address"
        },
        {
          "internalType": "address",
          "name": "to",
          "type": "address"
        },
        {
          "internalType": "uint256",
          "name": "tokenId",
          "type": "uint256"
        }
      ],
      "name": "safeTransferFrom",
      "outputs": [],
      "stateMutability": "nonpayable",
      "type": "function"
    },
    {
      "inputs": [
        {
          "internalType": "address",
          "name": "from",
          "type": "address"
        },
        {
          "internalType": "address",
          "name": "to",
          "type": "address"
        },
        {
          "internalType": "uint256",
          "name": "tokenId",
          "type": "uint256"
        },
        {
          "internalType": "bytes",
          "name": "_data",
          "type": "bytes"
        }
      ],
      "name": "safeTransferFrom",
      "outputs": [],
      "stateMutability": "nonpayable",
      "type": "function"
    },
    {
      "inputs": [
        {
          "internalType": "address",
          "name": "operator",
          "type": "address"
        },
        {
          "internalType": "bool",
          "name": "approved",
          "type": "bool"
        }
      ],
      "name": "setApprovalForAll",
      "outputs": [],
      "stateMutability": "nonpayable",
      "type": "function"
    },
    {
      "inputs": [
        {
          "internalType": "bytes4",
          "name": "interfaceId",
          "type": "bytes4"
        }
      ],
      "name": "supportsInterface",
      "outputs": [
        {
          "internalType": "bool",
          "name": "",
          "type": "bool"
        }
      ],
      "stateMutability": "view",
      "type": "function"
    },
    {
      "inputs": [],
      "name": "symbol",
      "outputs": [
        {
          "internalType": "string",
          "name": "",
          "type": "string"
        }
      ],
      "stateMutability": "view",
      "type": "function"
    },
    {
      "inputs": [
        {
          "internalType": "uint256",
          "name": "tokenId",
          "type": "uint256"
        }
      ],
      "name": "tokenURI",
      "outputs": [
        {
          "internalType": "string",
          "name": "",
          "type": "string"
        }
      ],
      "stateMutability": "view",
      "type": "function"
    },
    {
      "inputs": [
        {
          "internalType": "address",
          "name": "from",
          "type": "address"
        },
        {
          "internalType": "address",
          "name": "to",
          "type": "address"
        },
        {
          "internalType": "uint256",
          "name": "tokenId",
          "type": "uint256"
        }
      ],
      "name": "transferFrom",
      "outputs": [],
      "stateMutability": "nonpayable",
      "type": "function"
    }
  ],
  "transactionHash": "0x4911cca0ed06e701700267dfa4f115aee12f822058d00c9de500666d81fdfb92",
  "args": [],
  "solcInputHash": "6304be5f99538150120d66af4566b217",
  "bytecode": "0x60806040523480156200001157600080fd5b50604080518082018252601181527011da5d18dbda5b8811185b98d948139195607a1b60208083019182528351808501909452600484526311d2551160e21b908401528151919291620000679160009162000175565b5080516200007d90600190602084019062000175565b506200008f91506000905033620000c1565b620000bb7f9f2df0fed2c77648de5860a4cc508cd0818c85b8b8a1ab4ceeef8d981c8956a633620000c1565b62000258565b620000cd8282620000d1565b5050565b60008281526006602090815260408083206001600160a01b038516845290915290205460ff16620000cd5760008281526006602090815260408083206001600160a01b03851684529091529020805460ff19166001179055620001313390565b6001600160a01b0316816001600160a01b0316837f2f8788117e7eff1d82e926ec794901d17c78024a50270940304540a733656f0d60405160405180910390a45050565b82805462000183906200021b565b90600052602060002090601f016020900481019282620001a75760008555620001f2565b82601f10620001c257805160ff1916838001178555620001f2565b82800160010185558215620001f2579182015b82811115620001f2578251825591602001919060010190620001d5565b506200020092915062000204565b5090565b5b8082111562000200576000815560010162000205565b6002810460018216806200023057607f821691505b602082108114156200025257634e487b7160e01b600052602260045260246000fd5b50919050565b611bea80620002686000396000f3fe608060405234801561001057600080fd5b50600436106101435760003560e01c80636352211e116100be5780636352211e1461029c57806370a08231146102af57806391d14854146102c257806395d89b41146102d5578063a217fddf146102dd578063a22cb465146102e5578063b55b8ceb146102f8578063b88d4fde1461031f578063c87b56dd14610332578063d0def52114610345578063d539139314610358578063d547741f1461036d578063e985e9c51461038057610143565b806301ffc9a714610148578063056524ea1461017057806306fdde03146101a5578063081812fc146101ba578063095ea7b3146101e55780630bb78ec1146101fa57806323b872dd1461020d578063248a9ca3146102205780632f2ff15d1461024357806336568abe1461025657806342842e0e146102695780635e6894fc1461027c575b600080fd5b61015b610156366004611877565b610393565b60405190151581526020015b60405180910390f35b6101977f2a0f2a070eb463d9807435b07a6dbfeede905dd039b03efc105c79daf0c8434881565b604051908152602001610167565b6101ad6103a6565b6040516101679190611987565b6101cd6101c836600461183d565b610438565b6040516001600160a01b039091168152602001610167565b6101f86101f3366004611814565b6104c5565b005b6101ad61020836600461183d565b6105d6565b6101f861021b3660046116c9565b610670565b61019761022e36600461183d565b60009081526006602052604090206001015490565b6101f8610251366004611855565b6106a1565b6101f8610264366004611855565b6106c8565b6101f86102773660046116c9565b610746565b61019761028a36600461183d565b60096020526000908152604090205481565b6101cd6102aa36600461183d565b610761565b6101976102bd36600461167d565b6107d8565b61015b6102d0366004611855565b61085f565b6101ad61088a565b610197600081565b6101f86102f336600461177c565b610899565b6101977fa9c8c3e87c79e0da85cf2d427e2102d48db1379529b967d6604d431f1437723f81565b6101f861032d366004611704565b610967565b6101ad61034036600461183d565b61099f565b6101976103533660046117b6565b610a65565b610197600080516020611b9583398151915281565b6101f861037b366004611855565b610b54565b61015b61038e366004611697565b610b7a565b600061039e82610ba8565b90505b919050565b6060600080546103b590611b14565b80601f01602080910402602001604051908101604052809291908181526020018280546103e190611b14565b801561042e5780601f106104035761010080835404028352916020019161042e565b820191906000526020600020905b81548152906001019060200180831161041157829003601f168201915b5050505050905090565b600061044382610bcd565b6104a95760405162461bcd60e51b815260206004820152602c60248201527f4552433732313a20617070726f76656420717565727920666f72206e6f6e657860448201526b34b9ba32b73a103a37b5b2b760a11b60648201526084015b60405180910390fd5b506000908152600460205260409020546001600160a01b031690565b60006104d082610761565b9050806001600160a01b0316836001600160a01b0316141561053e5760405162461bcd60e51b815260206004820152602160248201527f4552433732313a20617070726f76616c20746f2063757272656e74206f776e656044820152603960f91b60648201526084016104a0565b336001600160a01b038216148061055a575061055a813361038e565b6105c75760405162461bcd60e51b815260206004820152603860248201527f4552433732313a20617070726f76652063616c6c6572206973206e6f74206f776044820152771b995c881b9bdc88185c1c1c9bdd995908199bdc88185b1b60421b60648201526084016104a0565b6105d18383610bea565b505050565b600860205260009081526040902080546105ef90611b14565b80601f016020809104026020016040519081016040528092919081815260200182805461061b90611b14565b80156106685780601f1061063d57610100808354040283529160200191610668565b820191906000526020600020905b81548152906001019060200180831161064b57829003601f168201915b505050505081565b61067a3382610c58565b6106965760405162461bcd60e51b81526004016104a090611a19565b6105d1838383610d22565b6000828152600660205260409020600101546106be81335b610ec2565b6105d18383610f26565b6001600160a01b03811633146107385760405162461bcd60e51b815260206004820152602f60248201527f416363657373436f6e74726f6c3a2063616e206f6e6c792072656e6f756e636560448201526e103937b632b9903337b91039b2b63360891b60648201526084016104a0565b6107428282610fac565b5050565b6105d183838360405180602001604052806000815250610967565b6000818152600260205260408120546001600160a01b03168061039e5760405162461bcd60e51b815260206004820152602960248201527f4552433732313a206f776e657220717565727920666f72206e6f6e657869737460448201526832b73a103a37b5b2b760b91b60648201526084016104a0565b60006001600160a01b0382166108435760405162461bcd60e51b815260206004820152602a60248201527f4552433732313a2062616c616e636520717565727920666f7220746865207a65604482015269726f206164647265737360b01b60648201526084016104a0565b506001600160a01b031660009081526003602052604090205490565b60009182526006602090815260408084206001600160a01b0393909316845291905290205460ff1690565b6060600180546103b590611b14565b6001600160a01b0382163314156108ee5760405162461bcd60e51b815260206004820152601960248201527822a9219b99189d1030b8383937bb32903a379031b0b63632b960391b60448201526064016104a0565b3360008181526005602090815260408083206001600160a01b0387168085529252909120805460ff1916841515179055906001600160a01b03167f17307eab39ab6107e8899845ad3d59bd9653f200f220920489ca2b5937696c318360405161095b911515815260200190565b60405180910390a35050565b6109713383610c58565b61098d5760405162461bcd60e51b81526004016104a090611a19565b61099984848484611013565b50505050565b60606109aa82610bcd565b6109c65760405162461bcd60e51b81526004016104a0906119ec565b600082815260086020526040812080546109df90611b14565b80601f0160208091040260200160405190810160405280929190818152602001828054610a0b90611b14565b8015610a585780601f10610a2d57610100808354040283529160200191610a58565b820191906000526020600020905b815481529060010190602001808311610a3b57829003601f168201915b5093979650505050505050565b6000610a7f600080516020611b958339815191523361085f565b610ad55760405162461bcd60e51b815260206004820152602160248201527f3732314d696e743a206163636f756e742069736e74204d696e74657220726f6c6044820152606560f81b60648201526084016104a0565b610ae783610ae260075490565b611046565b610af9610af360075490565b83611179565b6000610b0460075490565b9050610b14600780546001019055565b7f9e0bfaf38878aad3ebd19b8c8065288eb130f0499a7378363d4652515588ac968184604051610b45929190611a6a565b60405180910390a19392505050565b600082815260066020526040902060010154610b7081336106b9565b6105d18383610fac565b6001600160a01b03918216600090815260056020908152604080832093909416825291909152205460ff1690565b60006001600160e01b03198216637965db0b60e01b148061039e575061039e82611213565b6000908152600260205260409020546001600160a01b0316151590565b600081815260046020526040902080546001600160a01b0319166001600160a01b0384169081179091558190610c1f82610761565b6001600160a01b03167f8c5be1e5ebec7d5bd14f71427d1e84f3dd0314c0f7b2291e5b200ac8c7c3b92560405160405180910390a45050565b6000610c6382610bcd565b610cc45760405162461bcd60e51b815260206004820152602c60248201527f4552433732313a206f70657261746f7220717565727920666f72206e6f6e657860448201526b34b9ba32b73a103a37b5b2b760a11b60648201526084016104a0565b6000610ccf83610761565b9050806001600160a01b0316846001600160a01b03161480610d0a5750836001600160a01b0316610cff84610438565b6001600160a01b0316145b80610d1a5750610d1a8185610b7a565b949350505050565b826001600160a01b0316610d3582610761565b6001600160a01b031614610d9d5760405162461bcd60e51b815260206004820152602960248201527f4552433732313a207472616e73666572206f6620746f6b656e2074686174206960448201526839903737ba1037bbb760b91b60648201526084016104a0565b6001600160a01b038216610dff5760405162461bcd60e51b8152602060048201526024808201527f4552433732313a207472616e7366657220746f20746865207a65726f206164646044820152637265737360e01b60648201526084016104a0565b610e0a600082610bea565b6001600160a01b0383166000908152600360205260408120805460019290610e33908490611aba565b90915550506001600160a01b0382166000908152600360205260408120805460019290610e61908490611a83565b909155505060008181526002602052604080822080546001600160a01b0319166001600160a01b0386811691821790925591518493918716917fddf252ad1be2c89b69c2b068fc378daa952ba7f163c4a11628f55a4df523b3ef91a4505050565b610ecc828261085f565b61074257610ee4816001600160a01b03166014611263565b610eef836020611263565b604051602001610f009291906118db565b60408051601f198184030181529082905262461bcd60e51b82526104a091600401611987565b610f30828261085f565b6107425760008281526006602090815260408083206001600160a01b03851684529091529020805460ff19166001179055610f683390565b6001600160a01b0316816001600160a01b0316837f2f8788117e7eff1d82e926ec794901d17c78024a50270940304540a733656f0d60405160405180910390a45050565b610fb6828261085f565b156107425760008281526006602090815260408083206001600160a01b0385168085529252808320805460ff1916905551339285917ff6391f5c32d9c69d2a47ea670b442974b53935d1edc7fd64eb21e047a839171b9190a45050565b61101e848484610d22565b61102a8484848461144b565b6109995760405162461bcd60e51b81526004016104a09061199a565b6001600160a01b03821661109c5760405162461bcd60e51b815260206004820181905260248201527f4552433732313a206d696e7420746f20746865207a65726f206164647265737360448201526064016104a0565b6110a581610bcd565b156110f25760405162461bcd60e51b815260206004820152601c60248201527f4552433732313a20746f6b656e20616c7265616479206d696e7465640000000060448201526064016104a0565b6001600160a01b038216600090815260036020526040812080546001929061111b908490611a83565b909155505060008181526002602052604080822080546001600160a01b0319166001600160a01b03861690811790915590518392907fddf252ad1be2c89b69c2b068fc378daa952ba7f163c4a11628f55a4df523b3ef908290a45050565b611191600080516020611b958339815191523361085f565b6111cf5760405162461bcd60e51b815260206004820152600f60248201526e4e6f74204d696e74657220526f6c6560881b60448201526064016104a0565b6111d882610bcd565b6111f45760405162461bcd60e51b81526004016104a0906119ec565b600082815260086020908152604090912082516105d192840190611558565b60006001600160e01b031982166380ac58cd60e01b148061124457506001600160e01b03198216635b5e139f60e01b145b8061039e57506301ffc9a760e01b6001600160e01b031983161461039e565b60606000611272836002611a9b565b61127d906002611a83565b6001600160401b038111156112a257634e487b7160e01b600052604160045260246000fd5b6040519080825280601f01601f1916602001820160405280156112cc576020820181803683370190505b509050600360fc1b816000815181106112f557634e487b7160e01b600052603260045260246000fd5b60200101906001600160f81b031916908160001a905350600f60fb1b8160018151811061133257634e487b7160e01b600052603260045260246000fd5b60200101906001600160f81b031916908160001a9053506000611356846002611a9b565b611361906001611a83565b90505b60018111156113f5576f181899199a1a9b1b9c1cb0b131b232b360811b85600f16601081106113a357634e487b7160e01b600052603260045260246000fd5b1a60f81b8282815181106113c757634e487b7160e01b600052603260045260246000fd5b60200101906001600160f81b031916908160001a90535060049490941c936113ee81611afd565b9050611364565b5083156114445760405162461bcd60e51b815260206004820181905260248201527f537472696e67733a20686578206c656e67746820696e73756666696369656e7460448201526064016104a0565b9392505050565b60006001600160a01b0384163b1561154d57604051630a85bd0160e11b81526001600160a01b0385169063150b7a029061148f90339089908890889060040161194a565b602060405180830381600087803b1580156114a957600080fd5b505af19250505080156114d9575060408051601f3d908101601f191682019092526114d691810190611893565b60015b611533573d808015611507576040519150601f19603f3d011682016040523d82523d6000602084013e61150c565b606091505b50805161152b5760405162461bcd60e51b81526004016104a09061199a565b805181602001fd5b6001600160e01b031916630a85bd0160e11b149050610d1a565b506001949350505050565b82805461156490611b14565b90600052602060002090601f01602090048101928261158657600085556115cc565b82601f1061159f57805160ff19168380011785556115cc565b828001600101855582156115cc579182015b828111156115cc5782518255916020019190600101906115b1565b506115d89291506115dc565b5090565b5b808211156115d857600081556001016115dd565b60006001600160401b038084111561160b5761160b611b65565b604051601f8501601f19908116603f0116810190828211818310171561163357611633611b65565b8160405280935085815286868601111561164c57600080fd5b858560208301376000602087830101525050509392505050565b80356001600160a01b03811681146103a157600080fd5b60006020828403121561168e578081fd5b61144482611666565b600080604083850312156116a9578081fd5b6116b283611666565b91506116c060208401611666565b90509250929050565b6000806000606084860312156116dd578081fd5b6116e684611666565b92506116f460208501611666565b9150604084013590509250925092565b60008060008060808587031215611719578081fd5b61172285611666565b935061173060208601611666565b92506040850135915060608501356001600160401b03811115611751578182fd5b8501601f81018713611761578182fd5b611770878235602084016115f1565b91505092959194509250565b6000806040838503121561178e578182fd5b61179783611666565b9150602083013580151581146117ab578182fd5b809150509250929050565b600080604083850312156117c8578182fd5b6117d183611666565b915060208301356001600160401b038111156117eb578182fd5b8301601f810185136117fb578182fd5b61180a858235602084016115f1565b9150509250929050565b60008060408385031215611826578182fd5b61182f83611666565b946020939093013593505050565b60006020828403121561184e578081fd5b5035919050565b60008060408385031215611867578182fd5b823591506116c060208401611666565b600060208284031215611888578081fd5b813561144481611b7b565b6000602082840312156118a4578081fd5b815161144481611b7b565b600081518084526118c7816020860160208601611ad1565b601f01601f19169290920160200192915050565b600076020b1b1b2b9b9a1b7b73a3937b61d1030b1b1b7bab73a1604d1b8252835161190d816017850160208801611ad1565b7001034b99036b4b9b9b4b733903937b6329607d1b601791840191820152835161193e816028840160208801611ad1565b01602801949350505050565b6001600160a01b038581168252841660208201526040810183905260806060820181905260009061197d908301846118af565b9695505050505050565b60006020825261144460208301846118af565b60208082526032908201527f4552433732313a207472616e7366657220746f206e6f6e20455243373231526560408201527131b2b4bb32b91034b6b83632b6b2b73a32b960711b606082015260800190565b602080825260139082015272139195081a5908191bdcd95b9d08195e1a5cdd606a1b604082015260600190565b60208082526031908201527f4552433732313a207472616e736665722063616c6c6572206973206e6f74206f6040820152701ddb995c881b9bdc88185c1c1c9bdd9959607a1b606082015260800190565b600083825260406020830152610d1a60408301846118af565b60008219821115611a9657611a96611b4f565b500190565b6000816000190483118215151615611ab557611ab5611b4f565b500290565b600082821015611acc57611acc611b4f565b500390565b60005b83811015611aec578181015183820152602001611ad4565b838111156109995750506000910152565b600081611b0c57611b0c611b4f565b506000190190565b600281046001821680611b2857607f821691505b60208210811415611b4957634e487b7160e01b600052602260045260246000fd5b50919050565b634e487b7160e01b600052601160045260246000fd5b634e487b7160e01b600052604160045260246000fd5b6001600160e01b031981168114611b9157600080fd5b5056fe9f2df0fed2c77648de5860a4cc508cd0818c85b8b8a1ab4ceeef8d981c8956a6a264697066735822122052b35726c187752caee6071acf107469bf565256e285cf9276b7d2c91c86c62864736f6c63430008020033",
  "devdoc": {
    "kind": "dev",
    "methods": {
      "approve(address,uint256)": {
        "details": "See {IERC721-approve}."
      },
      "balanceOf(address)": {
        "details": "See {IERC721-balanceOf}."
      },
      "getApproved(uint256)": {
        "details": "See {IERC721-getApproved}."
      },
      "getRoleAdmin(bytes32)": {
        "details": "Returns the admin role that controls `role`. See {grantRole} and {revokeRole}. To change a role's admin, use {_setRoleAdmin}."
      },
      "grantRole(bytes32,address)": {
        "details": "Grants `role` to `account`. If `account` had not been already granted `role`, emits a {RoleGranted} event. Requirements: - the caller must have ``role``'s admin role."
      },
      "hasRole(bytes32,address)": {
        "details": "Returns `true` if `account` has been granted `role`."
      },
      "isApprovedForAll(address,address)": {
        "details": "See {IERC721-isApprovedForAll}."
      },
      "name()": {
        "details": "See {IERC721Metadata-name}."
      },
      "ownerOf(uint256)": {
        "details": "See {IERC721-ownerOf}."
      },
      "renounceRole(bytes32,address)": {
        "details": "Revokes `role` from the calling account. Roles are often managed via {grantRole} and {revokeRole}: this function's purpose is to provide a mechanism for accounts to lose their privileges if they are compromised (such as when a trusted device is misplaced). If the calling account had been granted `role`, emits a {RoleRevoked} event. Requirements: - the caller must be `account`."
      },
      "revokeRole(bytes32,address)": {
        "details": "Revokes `role` from `account`. If `account` had been granted `role`, emits a {RoleRevoked} event. Requirements: - the caller must have ``role``'s admin role."
      },
      "safeTransferFrom(address,address,uint256)": {
        "details": "See {IERC721-safeTransferFrom}."
      },
      "safeTransferFrom(address,address,uint256,bytes)": {
        "details": "See {IERC721-safeTransferFrom}."
      },
      "setApprovalForAll(address,bool)": {
        "details": "See {IERC721-setApprovalForAll}."
      },
      "symbol()": {
        "details": "See {IERC721Metadata-symbol}."
      },
      "tokenURI(uint256)": {
        "details": "See {IERC721Metadata-tokenURI}."
      },
      "transferFrom(address,address,uint256)": {
        "details": "See {IERC721-transferFrom}."
      }
    },
    "version": 1
  },
  "userdoc": {
    "kind": "user",
    "methods": {},
    "version": 1
  },
  "storageLayout": {
    "storage": [
      {
        "astId": 12927,
        "contract": "contracts/zksync/ERC721Mintable.sol:ERC721Mintable",
        "label": "_name",
        "offset": 0,
        "slot": "0",
        "type": "t_string_storage"
      },
      {
        "astId": 12929,
        "contract": "contracts/zksync/ERC721Mintable.sol:ERC721Mintable",
        "label": "_symbol",
        "offset": 0,
        "slot": "1",
        "type": "t_string_storage"
      },
      {
        "astId": 12933,
        "contract": "contracts/zksync/ERC721Mintable.sol:ERC721Mintable",
        "label": "_owners",
        "offset": 0,
        "slot": "2",
        "type": "t_mapping(t_uint256,t_address)"
      },
      {
        "astId": 12937,
        "contract": "contracts/zksync/ERC721Mintable.sol:ERC721Mintable",
        "label": "_balances",
        "offset": 0,
        "slot": "3",
        "type": "t_mapping(t_address,t_uint256)"
      },
      {
        "astId": 12941,
        "contract": "contracts/zksync/ERC721Mintable.sol:ERC721Mintable",
        "label": "_tokenApprovals",
        "offset": 0,
        "slot": "4",
        "type": "t_mapping(t_uint256,t_address)"
      },
      {
        "astId": 12947,
        "contract": "contracts/zksync/ERC721Mintable.sol:ERC721Mintable",
        "label": "_operatorApprovals",
        "offset": 0,
        "slot": "5",
        "type": "t_mapping(t_address,t_mapping(t_address,t_bool))"
      },
      {
        "astId": 62,
        "contract": "contracts/zksync/ERC721Mintable.sol:ERC721Mintable",
        "label": "_roles",
        "offset": 0,
        "slot": "6",
        "type": "t_mapping(t_bytes32,t_struct(RoleData)57_storage)"
      },
      {
        "astId": 19917,
        "contract": "contracts/zksync/ERC721Mintable.sol:ERC721Mintable",
        "label": "_tokenIds",
        "offset": 0,
        "slot": "7",
        "type": "t_struct(Counter)16440_storage"
      },
      {
        "astId": 19924,
        "contract": "contracts/zksync/ERC721Mintable.sol:ERC721Mintable",
        "label": "_tokenURIs",
        "offset": 0,
        "slot": "8",
        "type": "t_mapping(t_uint256,t_string_storage)"
      },
      {
        "astId": 19928,
        "contract": "contracts/zksync/ERC721Mintable.sol:ERC721Mintable",
        "label": "_votesById",
        "offset": 0,
        "slot": "9",
        "type": "t_mapping(t_uint256,t_uint256)"
      }
    ],
    "types": {
      "t_address": {
        "encoding": "inplace",
        "label": "address",
        "numberOfBytes": "20"
      },
      "t_bool": {
        "encoding": "inplace",
        "label": "bool",
        "numberOfBytes": "1"
      },
      "t_bytes32": {
        "encoding": "inplace",
        "label": "bytes32",
        "numberOfBytes": "32"
      },
      "t_mapping(t_address,t_bool)": {
        "encoding": "mapping",
        "key": "t_address",
        "label": "mapping(address => bool)",
        "numberOfBytes": "32",
        "value": "t_bool"
      },
      "t_mapping(t_address,t_mapping(t_address,t_bool))": {
        "encoding": "mapping",
        "key": "t_address",
        "label": "mapping(address => mapping(address => bool))",
        "numberOfBytes": "32",
        "value": "t_mapping(t_address,t_bool)"
      },
      "t_mapping(t_address,t_uint256)": {
        "encoding": "mapping",
        "key": "t_address",
        "label": "mapping(address => uint256)",
        "numberOfBytes": "32",
        "value": "t_uint256"
      },
      "t_mapping(t_bytes32,t_struct(RoleData)57_storage)": {
        "encoding": "mapping",
        "key": "t_bytes32",
        "label": "mapping(bytes32 => struct AccessControl.RoleData)",
        "numberOfBytes": "32",
        "value": "t_struct(RoleData)57_storage"
      },
      "t_mapping(t_uint256,t_address)": {
        "encoding": "mapping",
        "key": "t_uint256",
        "label": "mapping(uint256 => address)",
        "numberOfBytes": "32",
        "value": "t_address"
      },
      "t_mapping(t_uint256,t_string_storage)": {
        "encoding": "mapping",
        "key": "t_uint256",
        "label": "mapping(uint256 => string)",
        "numberOfBytes": "32",
        "value": "t_string_storage"
      },
      "t_mapping(t_uint256,t_uint256)": {
        "encoding": "mapping",
        "key": "t_uint256",
        "label": "mapping(uint256 => uint256)",
        "numberOfBytes": "32",
        "value": "t_uint256"
      },
      "t_string_storage": {
        "encoding": "bytes",
        "label": "string",
        "numberOfBytes": "32"
      },
      "t_struct(Counter)16440_storage": {
        "encoding": "inplace",
        "label": "struct Counters.Counter",
        "members": [
          {
            "astId": 16439,
            "contract": "contracts/zksync/ERC721Mintable.sol:ERC721Mintable",
            "label": "_value",
            "offset": 0,
            "slot": "0",
            "type": "t_uint256"
          }
        ],
        "numberOfBytes": "32"
      },
      "t_struct(RoleData)57_storage": {
        "encoding": "inplace",
        "label": "struct AccessControl.RoleData",
        "members": [
          {
            "astId": 54,
            "contract": "contracts/zksync/ERC721Mintable.sol:ERC721Mintable",
            "label": "members",
            "offset": 0,
            "slot": "0",
            "type": "t_mapping(t_address,t_bool)"
          },
          {
            "astId": 56,
            "contract": "contracts/zksync/ERC721Mintable.sol:ERC721Mintable",
            "label": "adminRole",
            "offset": 0,
            "slot": "1",
            "type": "t_bytes32"
          }
        ],
        "numberOfBytes": "64"
      },
      "t_uint256": {
        "encoding": "inplace",
        "label": "uint256",
        "numberOfBytes": "32"
      }
    }
  }
}