{
  "address": "0x5FbDB2315678afecb367f032d93F642f64180aa3",
  "abi": [
    {
      "inputs": [
        {
          "internalType": "uint256",
          "name": "num_dancers",
          "type": "uint256"
        },
        {
          "internalType": "uint256",
          "name": "roundTimeInBlocks",
          "type": "uint256"
        },
        {
          "internalType": "address",
          "name": "dai_address",
          "type": "address"
        }
      ],
      "stateMutability": "nonpayable",
      "type": "constructor"
    },
    {
      "anonymous": false,
      "inputs": [
        {
          "indexed": true,
          "internalType": "address",
          "name": "owner",
          "type": "address"
        },
        {
          "indexed": true,
          "internalType": "address",
          "name": "approved",
          "type": "address"
        },
        {
          "indexed": true,
          "internalType": "uint256",
          "name": "tokenId",
          "type": "uint256"
        }
      ],
      "name": "Approval",
      "type": "event"
    },
    {
      "anonymous": false,
      "inputs": [
        {
          "indexed": true,
          "internalType": "address",
          "name": "owner",
          "type": "address"
        },
        {
          "indexed": true,
          "internalType": "address",
          "name": "operator",
          "type": "address"
        },
        {
          "indexed": false,
          "internalType": "bool",
          "name": "approved",
          "type": "bool"
        }
      ],
      "name": "ApprovalForAll",
      "type": "event"
    },
    {
      "anonymous": false,
      "inputs": [
        {
          "indexed": true,
          "internalType": "address",
          "name": "a",
          "type": "address"
        },
        {
          "indexed": true,
          "internalType": "uint256",
          "name": "nftid",
          "type": "uint256"
        }
      ],
      "name": "DancerCreated",
      "type": "event"
    },
    {
      "anonymous": false,
      "inputs": [
        {
          "indexed": false,
          "internalType": "uint256",
          "name": "bracket",
          "type": "uint256"
        },
        {
          "indexed": true,
          "internalType": "address",
          "name": "a",
          "type": "address"
        },
        {
          "indexed": true,
          "internalType": "address",
          "name": "b",
          "type": "address"
        }
      ],
      "name": "GotBracketParticipants",
      "type": "event"
    },
    {
      "anonymous": false,
      "inputs": [
        {
          "indexed": true,
          "internalType": "uint256",
          "name": "log",
          "type": "uint256"
        }
      ],
      "name": "Log",
      "type": "event"
    },
    {
      "anonymous": false,
      "inputs": [
        {
          "indexed": false,
          "internalType": "uint256",
          "name": "nftId",
          "type": "uint256"
        },
        {
          "indexed": false,
          "internalType": "string",
          "name": "uri",
          "type": "string"
        }
      ],
      "name": "NFTMinted",
      "type": "event"
    },
    {
      "anonymous": false,
      "inputs": [
        {
          "indexed": true,
          "internalType": "bytes32",
          "name": "role",
          "type": "bytes32"
        },
        {
          "indexed": true,
          "internalType": "bytes32",
          "name": "previousAdminRole",
          "type": "bytes32"
        },
        {
          "indexed": true,
          "internalType": "bytes32",
          "name": "newAdminRole",
          "type": "bytes32"
        }
      ],
      "name": "RoleAdminChanged",
      "type": "event"
    },
    {
      "anonymous": false,
      "inputs": [
        {
          "indexed": true,
          "internalType": "bytes32",
          "name": "role",
          "type": "bytes32"
        },
        {
          "indexed": true,
          "internalType": "address",
          "name": "account",
          "type": "address"
        },
        {
          "indexed": true,
          "internalType": "address",
          "name": "sender",
          "type": "address"
        }
      ],
      "name": "RoleGranted",
      "type": "event"
    },
    {
      "anonymous": false,
      "inputs": [
        {
          "indexed": true,
          "internalType": "bytes32",
          "name": "role",
          "type": "bytes32"
        },
        {
          "indexed": true,
          "internalType": "address",
          "name": "account",
          "type": "address"
        },
        {
          "indexed": true,
          "internalType": "address",
          "name": "sender",
          "type": "address"
        }
      ],
      "name": "RoleRevoked",
      "type": "event"
    },
    {
      "anonymous": false,
      "inputs": [
        {
          "indexed": true,
          "internalType": "address",
          "name": "from",
          "type": "address"
        },
        {
          "indexed": true,
          "internalType": "address",
          "name": "to",
          "type": "address"
        },
        {
          "indexed": true,
          "internalType": "uint256",
          "name": "tokenId",
          "type": "uint256"
        }
      ],
      "name": "Transfer",
      "type": "event"
    },
    {
      "inputs": [],
      "name": "DEFAULT_ADMIN_ROLE",
      "outputs": [
        {
          "internalType": "bytes32",
          "name": "",
          "type": "bytes32"
        }
      ],
      "stateMutability": "view",
      "type": "function"
    },
    {
      "inputs": [],
      "name": "MATIC_ROLE",
      "outputs": [
        {
          "internalType": "bytes32",
          "name": "",
          "type": "bytes32"
        }
      ],
      "stateMutability": "view",
      "type": "function"
    },
    {
      "inputs": [],
      "name": "MINTER_ROLE",
      "outputs": [
        {
          "internalType": "bytes32",
          "name": "",
          "type": "bytes32"
        }
      ],
      "stateMutability": "view",
      "type": "function"
    },
    {
      "inputs": [],
      "name": "ZKSYNC_ROLE",
      "outputs": [
        {
          "internalType": "bytes32",
          "name": "",
          "type": "bytes32"
        }
      ],
      "stateMutability": "view",
      "type": "function"
    },
    {
      "inputs": [
        {
          "internalType": "uint256",
          "name": "",
          "type": "uint256"
        }
      ],
      "name": "_tokenURIs",
      "outputs": [
        {
          "internalType": "string",
          "name": "",
          "type": "string"
        }
      ],
      "stateMutability": "view",
      "type": "function"
    },
    {
      "inputs": [
        {
          "internalType": "uint256",
          "name": "",
          "type": "uint256"
        }
      ],
      "name": "_votesById",
      "outputs": [
        {
          "internalType": "uint256",
          "name": "",
          "type": "uint256"
        }
      ],
      "stateMutability": "view",
      "type": "function"
    },
    {
      "inputs": [
        {
          "internalType": "uint256",
          "name": "",
          "type": "uint256"
        }
      ],
      "name": "addressByNFTId",
      "outputs": [
        {
          "internalType": "address",
          "name": "",
          "type": "address"
        }
      ],
      "stateMutability": "view",
      "type": "function"
    },
    {
      "inputs": [],
      "name": "advanceGame",
      "outputs": [],
      "stateMutability": "nonpayable",
      "type": "function"
    },
    {
      "inputs": [
        {
          "internalType": "address",
          "name": "to",
          "type": "address"
        },
        {
          "internalType": "uint256",
          "name": "tokenId",
          "type": "uint256"
        }
      ],
      "name": "approve",
      "outputs": [],
      "stateMutability": "nonpayable",
      "type": "function"
    },
    {
      "inputs": [
        {
          "internalType": "address",
          "name": "owner",
          "type": "address"
        }
      ],
      "name": "balanceOf",
      "outputs": [
        {
          "internalType": "uint256",
          "name": "",
          "type": "uint256"
        }
      ],
      "stateMutability": "view",
      "type": "function"
    },
    {
      "inputs": [
        {
          "internalType": "uint256",
          "name": "bracketNumber",
          "type": "uint256"
        }
      ],
      "name": "determineBracketWinners",
      "outputs": [],
      "stateMutability": "nonpayable",
      "type": "function"
    },
    {
      "inputs": [],
      "name": "determineBrackets",
      "outputs": [],
      "stateMutability": "nonpayable",
      "type": "function"
    },
    {
      "inputs": [
        {
          "internalType": "uint256",
          "name": "_num_dancers",
          "type": "uint256"
        }
      ],
      "name": "determineGameRounds",
      "outputs": [
        {
          "internalType": "uint256",
          "name": "n",
          "type": "uint256"
        }
      ],
      "stateMutability": "nonpayable",
      "type": "function"
    },
    {
      "inputs": [
        {
          "internalType": "uint256",
          "name": "",
          "type": "uint256"
        }
      ],
      "name": "donationAddressByNftId",
      "outputs": [
        {
          "internalType": "address",
          "name": "",
          "type": "address"
        }
      ],
      "stateMutability": "view",
      "type": "function"
    },
    {
      "inputs": [],
      "name": "g_rounds",
      "outputs": [
        {
          "internalType": "uint256",
          "name": "",
          "type": "uint256"
        }
      ],
      "stateMutability": "view",
      "type": "function"
    },
    {
      "inputs": [
        {
          "internalType": "uint256",
          "name": "",
          "type": "uint256"
        },
        {
          "internalType": "uint256",
          "name": "",
          "type": "uint256"
        },
        {
          "internalType": "uint256",
          "name": "",
          "type": "uint256"
        },
        {
          "internalType": "uint256",
          "name": "",
          "type": "uint256"
        }
      ],
      "name": "gameByBracketByRound",
      "outputs": [
        {
          "internalType": "uint256",
          "name": "",
          "type": "uint256"
        }
      ],
      "stateMutability": "view",
      "type": "function"
    },
    {
      "inputs": [
        {
          "internalType": "uint256",
          "name": "tokenId",
          "type": "uint256"
        }
      ],
      "name": "getApproved",
      "outputs": [
        {
          "internalType": "address",
          "name": "",
          "type": "address"
        }
      ],
      "stateMutability": "view",
      "type": "function"
    },
    {
      "inputs": [
        {
          "internalType": "uint256",
          "name": "unfilled_brackets",
          "type": "uint256"
        }
      ],
      "name": "getBracketEntropy",
      "outputs": [
        {
          "internalType": "uint256",
          "name": "bracketNo",
          "type": "uint256"
        }
      ],
      "stateMutability": "nonpayable",
      "type": "function"
    },
    {
      "inputs": [
        {
          "internalType": "bytes32",
          "name": "role",
          "type": "bytes32"
        }
      ],
      "name": "getRoleAdmin",
      "outputs": [
        {
          "internalType": "bytes32",
          "name": "",
          "type": "bytes32"
        }
      ],
      "stateMutability": "view",
      "type": "function"
    },
    {
      "inputs": [
        {
          "internalType": "bytes32",
          "name": "role",
          "type": "bytes32"
        },
        {
          "internalType": "address",
          "name": "account",
          "type": "address"
        }
      ],
      "name": "grantRole",
      "outputs": [],
      "stateMutability": "nonpayable",
      "type": "function"
    },
    {
      "inputs": [
        {
          "internalType": "bytes32",
          "name": "role",
          "type": "bytes32"
        },
        {
          "internalType": "address",
          "name": "account",
          "type": "address"
        }
      ],
      "name": "hasRole",
      "outputs": [
        {
          "internalType": "bool",
          "name": "",
          "type": "bool"
        }
      ],
      "stateMutability": "view",
      "type": "function"
    },
    {
      "inputs": [
        {
          "internalType": "address",
          "name": "owner",
          "type": "address"
        },
        {
          "internalType": "address",
          "name": "operator",
          "type": "address"
        }
      ],
      "name": "isApprovedForAll",
      "outputs": [
        {
          "internalType": "bool",
          "name": "",
          "type": "bool"
        }
      ],
      "stateMutability": "view",
      "type": "function"
    },
    {
      "inputs": [
        {
          "internalType": "uint256",
          "name": "x",
          "type": "uint256"
        }
      ],
      "name": "log2",
      "outputs": [
        {
          "internalType": "uint256",
          "name": "n",
          "type": "uint256"
        }
      ],
      "stateMutability": "nonpayable",
      "type": "function"
    },
    {
      "inputs": [
        {
          "internalType": "address",
          "name": "to",
          "type": "address"
        },
        {
          "internalType": "string",
          "name": "tokenURI",
          "type": "string"
        }
      ],
      "name": "mint",
      "outputs": [
        {
          "internalType": "uint256",
          "name": "tokenID",
          "type": "uint256"
        }
      ],
      "stateMutability": "nonpayable",
      "type": "function"
    },
    {
      "inputs": [
        {
          "internalType": "string",
          "name": "nftURI",
          "type": "string"
        },
        {
          "internalType": "address",
          "name": "creator",
          "type": "address"
        }
      ],
      "name": "mintNFTAndDeployDonationAddress",
      "outputs": [
        {
          "internalType": "address",
          "name": "nft_donation_address",
          "type": "address"
        }
      ],
      "stateMutability": "nonpayable",
      "type": "function"
    },
    {
      "inputs": [],
      "name": "name",
      "outputs": [
        {
          "internalType": "string",
          "name": "",
          "type": "string"
        }
      ],
      "stateMutability": "view",
      "type": "function"
    },
    {
      "inputs": [
        {
          "internalType": "address",
          "name": "",
          "type": "address"
        }
      ],
      "name": "nftIdByDonationAddress",
      "outputs": [
        {
          "internalType": "uint256",
          "name": "",
          "type": "uint256"
        }
      ],
      "stateMutability": "view",
      "type": "function"
    },
    {
      "inputs": [
        {
          "internalType": "address",
          "name": "",
          "type": "address"
        }
      ],
      "name": "notEliminated",
      "outputs": [
        {
          "internalType": "bool",
          "name": "",
          "type": "bool"
        }
      ],
      "stateMutability": "view",
      "type": "function"
    },
    {
      "inputs": [
        {
          "internalType": "uint256",
          "name": "tokenId",
          "type": "uint256"
        }
      ],
      "name": "ownerOf",
      "outputs": [
        {
          "internalType": "address",
          "name": "",
          "type": "address"
        }
      ],
      "stateMutability": "view",
      "type": "function"
    },
    {
      "inputs": [
        {
          "internalType": "bytes32",
          "name": "role",
          "type": "bytes32"
        },
        {
          "internalType": "address",
          "name": "account",
          "type": "address"
        }
      ],
      "name": "renounceRole",
      "outputs": [],
      "stateMutability": "nonpayable",
      "type": "function"
    },
    {
      "inputs": [
        {
          "internalType": "bytes32",
          "name": "role",
          "type": "bytes32"
        },
        {
          "internalType": "address",
          "name": "account",
          "type": "address"
        }
      ],
      "name": "revokeRole",
      "outputs": [],
      "stateMutability": "nonpayable",
      "type": "function"
    },
    {
      "inputs": [
        {
          "internalType": "address",
          "name": "from",
          "type": "address"
        },
        {
          "internalType": "address",
          "name": "to",
          "type": "address"
        },
        {
          "internalType": "uint256",
          "name": "tokenId",
          "type": "uint256"
        }
      ],
      "name": "safeTransferFrom",
      "outputs": [],
      "stateMutability": "nonpayable",
      "type": "function"
    },
    {
      "inputs": [
        {
          "internalType": "address",
          "name": "from",
          "type": "address"
        },
        {
          "internalType": "address",
          "name": "to",
          "type": "address"
        },
        {
          "internalType": "uint256",
          "name": "tokenId",
          "type": "uint256"
        },
        {
          "internalType": "bytes",
          "name": "_data",
          "type": "bytes"
        }
      ],
      "name": "safeTransferFrom",
      "outputs": [],
      "stateMutability": "nonpayable",
      "type": "function"
    },
    {
      "inputs": [
        {
          "internalType": "address",
          "name": "operator",
          "type": "address"
        },
        {
          "internalType": "bool",
          "name": "approved",
          "type": "bool"
        }
      ],
      "name": "setApprovalForAll",
      "outputs": [],
      "stateMutability": "nonpayable",
      "type": "function"
    },
    {
      "inputs": [],
      "name": "startGame",
      "outputs": [],
      "stateMutability": "nonpayable",
      "type": "function"
    },
    {
      "inputs": [
        {
          "internalType": "bytes4",
          "name": "interfaceId",
          "type": "bytes4"
        }
      ],
      "name": "supportsInterface",
      "outputs": [
        {
          "internalType": "bool",
          "name": "",
          "type": "bool"
        }
      ],
      "stateMutability": "view",
      "type": "function"
    },
    {
      "inputs": [],
      "name": "symbol",
      "outputs": [
        {
          "internalType": "string",
          "name": "",
          "type": "string"
        }
      ],
      "stateMutability": "view",
      "type": "function"
    },
    {
      "inputs": [
        {
          "internalType": "uint256",
          "name": "tokenId",
          "type": "uint256"
        }
      ],
      "name": "tokenURI",
      "outputs": [
        {
          "internalType": "string",
          "name": "",
          "type": "string"
        }
      ],
      "stateMutability": "view",
      "type": "function"
    },
    {
      "inputs": [
        {
          "internalType": "address",
          "name": "from",
          "type": "address"
        },
        {
          "internalType": "address",
          "name": "to",
          "type": "address"
        },
        {
          "internalType": "uint256",
          "name": "tokenId",
          "type": "uint256"
        }
      ],
      "name": "transferFrom",
      "outputs": [],
      "stateMutability": "nonpayable",
      "type": "function"
    },
    {
      "inputs": [
        {
          "internalType": "uint256",
          "name": "",
          "type": "uint256"
        }
      ],
      "name": "votesPerNftId",
      "outputs": [
        {
          "internalType": "uint256",
          "name": "",
          "type": "uint256"
        }
      ],
      "stateMutability": "view",
      "type": "function"
    },
    {
      "inputs": [
        {
          "internalType": "address",
          "name": "donation_proxy",
          "type": "address"
        }
      ],
      "name": "withdrawlFromDonationProxyToSelf",
      "outputs": [
        {
          "internalType": "bool",
          "name": "success",
          "type": "bool"
        }
      ],
      "stateMutability": "nonpayable",
      "type": "function"
    }
  ],
  "transactionHash": "0x28f856f4e9011572376592f39c43faa4e5083599e6564ca04d0aa0bd304bf64f",
  "args": [
    16,
    150,
    "0x5592EC0cfb4dbc12D3aB100b257153436a1f0FEa"
  ],
  "solcInputHash": "6304be5f99538150120d66af4566b217",
  "bytecode": "0x60806040526000600f81905560108190556107d060135560646014556016556017805460ff191690553480156200003557600080fd5b5060405162003c0838038062003c08833981016040819052620000589162000700565b604080518082018252601181527011da5d18dbda5b8811185b98d948139195607a1b60208083019182528351808501909452600484526311d2551160e21b908401528151919291620000ad916000916200062a565b508051620000c39060019060208401906200062a565b50620000d5915060009050336200013b565b620001017f9f2df0fed2c77648de5860a4cc508cd0818c85b8b8a1ab4ceeef8d981c8956a6336200013b565b600a80546001600160a01b0319166001600160a01b03831617905562000127836200014b565b620001328362000299565b50505062000816565b620001478282620002e0565b5050565b62000158600282620007d3565b15620001ab5760405162461bcd60e51b815260206004820152601660248201527f746869732069736e74206120706f776572206f6620320000000000000000000060448201526064015b60405180910390fd5b60175460ff1615620002005760405162461bcd60e51b815260206004820152601c60248201527f67616d652063616e74206265207374617274656420616c7265616479000000006044820152606401620001a2565b60186000600f54600162000215919062000746565b815260208082019290925260409081016000908120818052835281812090925290206001015415620002965760405162461bcd60e51b815260206004820152602360248201527f54686973206c6f6f6b73206c696b65206120726f756e6420657869737473206860448201526265726560e81b6064820152608401620001a2565b50565b620002a4816200014b565b600f8054906000620002b683620007b5565b9091555050600160115560158190556016819055620002d58162000384565b50620002966200039e565b60008281526006602090815260408083206001600160a01b038516845290915290205460ff16620001475760008281526006602090815260408083206001600160a01b03851684529091529020805460ff19166001179055620003403390565b6001600160a01b0316816001600160a01b0316837f2f8788117e7eff1d82e926ec794901d17c78024a50270940304540a733656f0d60405160405180910390a45050565b6000806200039283620004a6565b60108190559392505050565b6000620003d86002620003c4601154601654620005dc60201b620013e11790919060201c565b620005dc60201b620013e11790919060201c565b60165490915060006001815b8481116200049f576200041281604051806040016040528086815260200185815250620005f160201b60201c565b6000828152600c6020908152604080832054868452928190205490518481526001600160a01b0393841693909116917fbbcbae1c475b8de12a83d866f05a6c253f2af9b5a7e299aa0d6f9fc50fb66e1e910160405180910390a36200047982600162000746565b92506200048883600162000746565b9150806200049681620007b5565b915050620003e4565b5050505050565b600080600160801b8310620004ca57608092831c92620004c7908262000746565b90505b680100000000000000008310620004f057604092831c92620004ed908262000746565b90505b64010000000083106200051257602092831c926200050f908262000746565b90505b6201000083106200053257601092831c926200052f908262000746565b90505b61010083106200055157600892831c926200054e908262000746565b90505b601083106200056f57600492831c926200056c908262000746565b90505b600483106200058d57600292831c926200058a908262000746565b90505b60028310620005ab57600192831c92620005a8908262000746565b90505b60405181907f909c57d5c6ac08245cf2a6de3900e2b868513fa59099b92b27d8db823d92df9c90600090a292915050565b6000620005ea828462000761565b9392505050565b600f5460009081526018602090815260408083206011548452825280832085845290915290206200062590826002620006b9565b505050565b828054620006389062000778565b90600052602060002090601f0160209004810192826200065c5760008555620006a7565b82601f106200067757805160ff1916838001178555620006a7565b82800160010185558215620006a7579182015b82811115620006a75782518255916020019190600101906200068a565b50620006b5929150620006e9565b5090565b8260028101928215620006a75791602002820182811115620006a75782518255916020019190600101906200068a565b5b80821115620006b55760008155600101620006ea565b60008060006060848603121562000715578283fd5b83516020850151604086015191945092506001600160a01b03811681146200073b578182fd5b809150509250925092565b600082198211156200075c576200075c620007ea565b500190565b60008262000773576200077362000800565b500490565b6002810460018216806200078d57607f821691505b60208210811415620007af57634e487b7160e01b600052602260045260246000fd5b50919050565b6000600019821415620007cc57620007cc620007ea565b5060010190565b600082620007e557620007e562000800565b500690565b634e487b7160e01b600052601160045260246000fd5b634e487b7160e01b600052601260045260246000fd5b6133e280620008266000396000f3fe60806040523480156200001157600080fd5b5060043610620002445760003560e01c806375b5e9241162000141578063b88d4fde11620000c3578063b88d4fde1462000595578063bd2f135a14620005ac578063c87b56dd14620005c3578063c892fffc14620005da578063d0def52114620005f1578063d53913931462000608578063d547741f146200061f578063d65ab5f21462000636578063dc31beb61462000640578063de5912bd146200064a578063e985e9c5146200065e5762000244565b806375b5e924146200048a5780637d659a4814620004945780638eb80eb514620004b757806391d1485414620004dd57806395d89b4114620004f457806398b9b23614620004fe5780639ce9c7b61462000521578063a217fddf146200054d578063a22cb4651462000556578063b55b8ceb146200056d5762000244565b80632f2ff15d11620001cb5780632f2ff15d146200039057806336568abe14620003a757806342842e0e14620003be57806348b336cb14620003d55780635456bf13146200040157806359360c0414620004185780635e6894fc146200042f5780636352211e14620004525780636b4d1f0c146200046957806370a0823114620004735762000244565b806301ffc9a71462000249578063056524ea146200027557806306fdde0314620002ac578063081812fc14620002c5578063095ea7b314620002f55780630bb78ec1146200030e5780631095b4df146200032557806323b872dd146200033c578063248a9ca31462000353578063272264d31462000379575b600080fd5b620002606200025a36600462002299565b62000675565b60405190151581526020015b60405180910390f35b6200029d7f2a0f2a070eb463d9807435b07a6dbfeede905dd039b03efc105c79daf0c8434881565b6040519081526020016200026c565b620002b66200068a565b6040516200026c919062002468565b620002dc620002d63660046200225b565b62000725565b6040516001600160a01b0390911681526020016200026c565b6200030c620003063660046200222f565b620007b5565b005b620002b66200031f3660046200225b565b620008d1565b6200029d620003363660046200225b565b62000973565b6200030c6200034d366004620020df565b6200098d565b6200029d620003643660046200225b565b60009081526006602052604090206001015490565b6200029d6200038a3660046200225b565b620009c5565b6200030c620003a136600462002274565b620009eb565b6200030c620003b836600462002274565b62000a16565b6200030c620003cf366004620020df565b62000a98565b620002dc620003e63660046200225b565b601a602052600090815260409020546001600160a01b031681565b6200029d620004123660046200225b565b62000ab5565b620002dc62000429366004620022d7565b62000be6565b6200029d620004403660046200225b565b60096020526000908152604090205481565b620002dc620004633660046200225b565b62000d1e565b6200030c62000d97565b6200029d620004843660046200208b565b62000e87565b6200030c62000f10565b6200029d620004a53660046200208b565b600d6020526000908152604090205481565b62000260620004c83660046200208b565b60196020526000908152604090205460ff1681565b62000260620004ee36600462002274565b62000f26565b620002b662000f51565b6200029d6200050f3660046200225b565b600e6020526000908152604090205481565b620002dc620005323660046200225b565b600c602052600090815260409020546001600160a01b031681565b6200029d600081565b6200030c62000567366004620021a0565b62000f62565b6200029d7fa9c8c3e87c79e0da85cf2d427e2102d48db1379529b967d6604d431f1437723f81565b6200030c620005a63660046200211f565b62001033565b6200029d620005bd36600462002338565b62001072565b620002b6620005d43660046200225b565b620010b2565b62000260620005eb3660046200208b565b62001185565b6200029d62000602366004620021de565b6200125f565b6200029d6000805160206200338d83398151915281565b6200030c6200063036600462002274565b6200135d565b6200030c62001387565b6200029d60105481565b6200030c6200065b3660046200225b565b50565b620002606200066f366004620020a8565b620013b3565b60006200068282620013ef565b90505b919050565b6060600080546200069b906200261f565b80601f0160208091040260200160405190810160405280929190818152602001828054620006c9906200261f565b80156200071a5780601f10620006ee576101008083540402835291602001916200071a565b820191906000526020600020905b815481529060010190602001808311620006fc57829003601f168201915b505050505090505b90565b6000620007328262001417565b620007995760405162461bcd60e51b815260206004820152602c60248201527f4552433732313a20617070726f76656420717565727920666f72206e6f6e657860448201526b34b9ba32b73a103a37b5b2b760a11b60648201526084015b60405180910390fd5b506000908152600460205260409020546001600160a01b031690565b6000620007c28262000d1e565b9050806001600160a01b0316836001600160a01b03161415620008325760405162461bcd60e51b815260206004820152602160248201527f4552433732313a20617070726f76616c20746f2063757272656e74206f776e656044820152603960f91b606482015260840162000790565b336001600160a01b03821614806200085157506200085181336200066f565b620008c05760405162461bcd60e51b815260206004820152603860248201527f4552433732313a20617070726f76652063616c6c6572206973206e6f74206f776044820152771b995c881b9bdc88185c1c1c9bdd995908199bdc88185b1b60421b606482015260840162000790565b620008cc838362001434565b505050565b60086020526000908152604090208054620008ec906200261f565b80601f01602080910402602001604051908101604052809291908181526020018280546200091a906200261f565b80156200096b5780601f106200093f576101008083540402835291602001916200096b565b820191906000526020600020905b8154815290600101906020018083116200094d57829003601f168201915b505050505081565b600080620009818362000ab5565b60108190559392505050565b620009993382620014a4565b620009b85760405162461bcd60e51b81526004016200079090620024fc565b620008cc8383836200157a565b600080620009d5600143620025bc565b409050620009e4818462001726565b9392505050565b60008281526006602052604090206001015462000a0a81335b62001734565b620008cc8383620017a3565b6001600160a01b038116331462000a885760405162461bcd60e51b815260206004820152602f60248201527f416363657373436f6e74726f6c3a2063616e206f6e6c792072656e6f756e636560448201526e103937b632b9903337b91039b2b63360891b606482015260840162000790565b62000a9482826200182d565b5050565b620008cc8383836040518060200160405280600081525062001033565b600080600160801b831062000ad957608092831c9262000ad6908262002568565b90505b600160401b831062000afa57604092831c9262000af7908262002568565b90505b640100000000831062000b1c57602092831c9262000b19908262002568565b90505b62010000831062000b3c57601092831c9262000b39908262002568565b90505b610100831062000b5b57600892831c9262000b58908262002568565b90505b6010831062000b7957600492831c9262000b76908262002568565b90505b6004831062000b9757600292831c9262000b94908262002568565b90505b6002831062000bb557600192831c9262000bb2908262002568565b90505b60405181907f909c57d5c6ac08245cf2a6de3900e2b868513fa59099b92b27d8db823d92df9c90600090a292915050565b600062000bf4813362000f26565b62000c365760405162461bcd60e51b81526020600482015260116024820152702737ba103232b330bab63a1030b236b4b760791b604482015260640162000790565b600062000c4430856200125f565b600a5460405191925060009130916001600160a01b03169062000c679062001ef1565b6001600160a01b03928316815291166020820152604001604051809103906000f08015801562000c9b573d6000803e3d6000fd5b50905081816001600160a01b03167fef9c0462f3702100d0fe56e120e5d1bad81b72afa45ef3a6fcd7b40e4e6d8b0660405160405180910390a36000828152600c6020818152604080842080546001600160a01b0319166001600160a01b0396871690811782558552600d83529084208690559490925290529054169392505050565b6000818152600260205260408120546001600160a01b031680620006825760405162461bcd60e51b815260206004820152602960248201527f4552433732313a206f776e657220717565727920666f72206e6f6e657869737460448201526832b73a103a37b5b2b760b91b606482015260840162000790565b600062000dbf600262000db8601154601654620013e190919063ffffffff16565b90620013e1565b60165490915060006001815b84811162000e805762000df38160405180604001604052808681526020018581525062001897565b6000828152600c6020908152604080832054868452928190205490518481526001600160a01b0393841693909116917fbbcbae1c475b8de12a83d866f05a6c253f2af9b5a7e299aa0d6f9fc50fb66e1e910160405180910390a362000e5a82600162002568565b925062000e6983600162002568565b91508062000e77816200265c565b91505062000dcb565b5050505050565b60006001600160a01b03821662000ef45760405162461bcd60e51b815260206004820152602a60248201527f4552433732313a2062616c616e636520717565727920666f7220746865207a65604482015269726f206164647265737360b01b606482015260840162000790565b506001600160a01b031660009081526003602052604090205490565b62000f1a620018cb565b62000f2457600080fd5b565b60009182526006602090815260408084206001600160a01b0393909316845291905290205460ff1690565b6060600180546200069b906200261f565b6001600160a01b03821633141562000fb95760405162461bcd60e51b815260206004820152601960248201527822a9219b99189d1030b8383937bb32903a379031b0b63632b960391b604482015260640162000790565b3360008181526005602090815260408083206001600160a01b0387168085529252909120805460ff1916841515179055906001600160a01b03167f17307eab39ab6107e8899845ad3d59bd9653f200f220920489ca2b5937696c318360405162001027911515815260200190565b60405180910390a35050565b6200103f3383620014a4565b6200105e5760405162461bcd60e51b81526004016200079090620024fc565b6200106c8484848462001930565b50505050565b60186020528360005260406000206020528260005260406000206020528160005260406000208160028110620010a757600080fd5b015493508492505050565b6060620010bf8262001417565b620010de5760405162461bcd60e51b81526004016200079090620024cf565b60008281526008602052604081208054620010f9906200261f565b80601f016020809104026020016040519081016040528092919081815260200182805462001127906200261f565b8015620011785780601f106200114c5761010080835404028352916020019162001178565b820191906000526020600020905b8154815290600101906020018083116200115a57829003601f168201915b5093979650505050505050565b600062001191620018cb565b6200119b57600080fd5b60408051600481526024810182526020810180516001600160e01b031663bbf6061b60e01b179052905160009182916001600160a01b03861691620011e09162002398565b6000604051808303816000865af19150503d80600081146200121f576040519150601f19603f3d011682016040523d82523d6000602084013e62001224565b606091505b5091509150811562001258576000818060200190518101906200124891906200231f565b90506200125685826200196a565b505b5092915050565b60006200127c6000805160206200338d8339815191523362000f26565b620012d45760405162461bcd60e51b815260206004820152602160248201527f3732314d696e743a206163636f756e742069736e74204d696e74657220726f6c6044820152606560f81b606482015260840162000790565b620012e983620012e360075490565b620019ad565b620012fe620012f760075490565b8362001ae8565b60006200130a60075490565b90506200131b600780546001019055565b7f9e0bfaf38878aad3ebd19b8c8065288eb130f0499a7378363d4652515588ac9681846040516200134e9291906200254d565b60405180910390a19392505050565b6000828152600660205260409020600101546200137b813362000a04565b620008cc83836200182d565b60175460ff16156200139857600080fd5b436012556017805460ff1916600117905562000f2462000d97565b6001600160a01b03918216600090815260056020908152604080832093909416825291909152205460ff1690565b6000620009e4828462002583565b60006001600160e01b03198216637965db0b60e01b1480620006825750620006828262001b8e565b6000908152600260205260409020546001600160a01b0316151590565b600081815260046020526040902080546001600160a01b0319166001600160a01b03841690811790915581906200146b8262000d1e565b6001600160a01b03167f8c5be1e5ebec7d5bd14f71427d1e84f3dd0314c0f7b2291e5b200ac8c7c3b92560405160405180910390a45050565b6000620014b18262001417565b620015145760405162461bcd60e51b815260206004820152602c60248201527f4552433732313a206f70657261746f7220717565727920666f72206e6f6e657860448201526b34b9ba32b73a103a37b5b2b760a11b606482015260840162000790565b6000620015218362000d1e565b9050806001600160a01b0316846001600160a01b031614806200155f5750836001600160a01b0316620015548462000725565b6001600160a01b0316145b80620015725750620015728185620013b3565b949350505050565b826001600160a01b03166200158f8262000d1e565b6001600160a01b031614620015f95760405162461bcd60e51b815260206004820152602960248201527f4552433732313a207472616e73666572206f6620746f6b656e2074686174206960448201526839903737ba1037bbb760b91b606482015260840162000790565b6001600160a01b0382166200165d5760405162461bcd60e51b8152602060048201526024808201527f4552433732313a207472616e7366657220746f20746865207a65726f206164646044820152637265737360e01b606482015260840162000790565b6200166a60008262001434565b6001600160a01b038316600090815260036020526040812080546001929062001695908490620025bc565b90915550506001600160a01b0382166000908152600360205260408120805460019290620016c590849062002568565b909155505060008181526002602052604080822080546001600160a01b0319166001600160a01b0386811691821790925591518493918716917fddf252ad1be2c89b69c2b068fc378daa952ba7f163c4a11628f55a4df523b3ef91a4505050565b6000620009e482846200267a565b62001740828262000f26565b62000a94576200175b816001600160a01b0316601462001be1565b6200176883602062001be1565b6040516020016200177b929190620023b6565b60408051601f198184030181529082905262461bcd60e51b8252620007909160040162002468565b620017af828262000f26565b62000a945760008281526006602090815260408083206001600160a01b03851684529091529020805460ff19166001179055620017e93390565b6001600160a01b0316816001600160a01b0316837f2f8788117e7eff1d82e926ec794901d17c78024a50270940304540a733656f0d60405160405180910390a45050565b62001839828262000f26565b1562000a945760008281526006602090815260408083206001600160a01b0385168085529252808320805460ff1916905551339285917ff6391f5c32d9c69d2a47ea670b442974b53935d1edc7fd64eb21e047a839171b9190a45050565b600f546000908152601860209081526040808320601154845282528083208584529091529020620008cc9082600262001eff565b60175460009060ff16620018de57600080fd5b600060125443620018f09190620025bc565b9050601354811062001928576000601354826200190e91906200267a565b90506014548111620019265760019250505062000722565b505b600091505090565b6200193d8484846200157a565b6200194b8484848462001dd6565b6200106c5760405162461bcd60e51b815260040162000790906200247d565b6001600160a01b0382166000908152600d6020908152604080832054808452600e9092528220805491928492620019a390849062002568565b9091555050505050565b6001600160a01b03821662001a055760405162461bcd60e51b815260206004820181905260248201527f4552433732313a206d696e7420746f20746865207a65726f2061646472657373604482015260640162000790565b62001a108162001417565b1562001a5f5760405162461bcd60e51b815260206004820152601c60248201527f4552433732313a20746f6b656e20616c7265616479206d696e74656400000000604482015260640162000790565b6001600160a01b038216600090815260036020526040812080546001929062001a8a90849062002568565b909155505060008181526002602052604080822080546001600160a01b0319166001600160a01b03861690811790915590518392907fddf252ad1be2c89b69c2b068fc378daa952ba7f163c4a11628f55a4df523b3ef908290a45050565b62001b036000805160206200338d8339815191523362000f26565b62001b435760405162461bcd60e51b815260206004820152600f60248201526e4e6f74204d696e74657220526f6c6560881b604482015260640162000790565b62001b4e8262001417565b62001b6d5760405162461bcd60e51b81526004016200079090620024cf565b60008281526008602090815260409091208251620008cc9284019062001f42565b60006001600160e01b031982166380ac58cd60e01b148062001bc057506001600160e01b03198216635b5e139f60e01b145b806200068257506301ffc9a760e01b6001600160e01b031983161462000682565b6060600062001bf28360026200259a565b62001bff90600262002568565b6001600160401b0381111562001c2557634e487b7160e01b600052604160045260246000fd5b6040519080825280601f01601f19166020018201604052801562001c50576020820181803683370190505b509050600360fc1b8160008151811062001c7a57634e487b7160e01b600052603260045260246000fd5b60200101906001600160f81b031916908160001a905350600f60fb1b8160018151811062001cb857634e487b7160e01b600052603260045260246000fd5b60200101906001600160f81b031916908160001a905350600062001cde8460026200259a565b62001ceb90600162002568565b90505b600181111562001d85576f181899199a1a9b1b9c1cb0b131b232b360811b85600f166010811062001d2f57634e487b7160e01b600052603260045260246000fd5b1a60f81b82828151811062001d5457634e487b7160e01b600052603260045260246000fd5b60200101906001600160f81b031916908160001a90535060049490941c9362001d7d8162002605565b905062001cee565b508315620009e45760405162461bcd60e51b815260206004820181905260248201527f537472696e67733a20686578206c656e67746820696e73756666696369656e74604482015260640162000790565b60006001600160a01b0384163b1562001ee657604051630a85bd0160e11b81526001600160a01b0385169063150b7a029062001e1d90339089908890889060040162002429565b602060405180830381600087803b15801562001e3857600080fd5b505af192505050801562001e6b575060408051601f3d908101601f1916820190925262001e6891810190620022b8565b60015b62001ecb573d80801562001e9c576040519150601f19603f3d011682016040523d82523d6000602084013e62001ea1565b606091505b50805162001ec35760405162461bcd60e51b815260040162000790906200247d565b805181602001fd5b6001600160e01b031916630a85bd0160e11b14905062001572565b506001949350505050565b610ca280620026eb83390190565b826002810192821562001f30579160200282015b8281111562001f3057825182559160200191906001019062001f13565b5062001f3e92915062001fbe565b5090565b82805462001f50906200261f565b90600052602060002090601f01602090048101928262001f74576000855562001f30565b82601f1062001f8f57805160ff191683800117855562001f30565b8280016001018555821562001f30579182018281111562001f3057825182559160200191906001019062001f13565b5b8082111562001f3e576000815560010162001fbf565b60006001600160401b038084111562001ff25762001ff2620026bd565b604051601f8501601f19908116603f011681019082821181831017156200201d576200201d620026bd565b816040528093508581528686860111156200203757600080fd5b858560208301376000602087830101525050509392505050565b80356001600160a01b03811681146200068557600080fd5b600082601f8301126200207a578081fd5b620009e48383356020850162001fd5565b6000602082840312156200209d578081fd5b620009e48262002051565b60008060408385031215620020bb578081fd5b620020c68362002051565b9150620020d66020840162002051565b90509250929050565b600080600060608486031215620020f4578081fd5b620020ff8462002051565b92506200210f6020850162002051565b9150604084013590509250925092565b6000806000806080858703121562002135578081fd5b620021408562002051565b9350620021506020860162002051565b92506040850135915060608501356001600160401b0381111562002172578182fd5b8501601f8101871362002183578182fd5b620021948782356020840162001fd5565b91505092959194509250565b60008060408385031215620021b3578182fd5b620021be8362002051565b915060208301358015158114620021d3578182fd5b809150509250929050565b60008060408385031215620021f1578182fd5b620021fc8362002051565b915060208301356001600160401b0381111562002217578182fd5b620022258582860162002069565b9150509250929050565b6000806040838503121562002242578182fd5b6200224d8362002051565b946020939093013593505050565b6000602082840312156200226d578081fd5b5035919050565b6000806040838503121562002287578182fd5b82359150620020d66020840162002051565b600060208284031215620022ab578081fd5b8135620009e481620026d3565b600060208284031215620022ca578081fd5b8151620009e481620026d3565b60008060408385031215620022ea578182fd5b82356001600160401b0381111562002300578283fd5b6200230e8582860162002069565b925050620020d66020840162002051565b60006020828403121562002331578081fd5b5051919050565b600080600080608085870312156200234e578182fd5b5050823594602084013594506040840135936060013592509050565b6000815180845262002384816020860160208601620025d6565b601f01601f19169290920160200192915050565b60008251620023ac818460208701620025d6565b9190910192915050565b600076020b1b1b2b9b9a1b7b73a3937b61d1030b1b1b7bab73a1604d1b82528351620023ea816017850160208801620025d6565b7001034b99036b4b9b9b4b733903937b6329607d1b60179184019182015283516200241d816028840160208801620025d6565b01602801949350505050565b6001600160a01b03858116825284166020820152604081018390526080606082018190526000906200245e908301846200236a565b9695505050505050565b600060208252620009e460208301846200236a565b60208082526032908201527f4552433732313a207472616e7366657220746f206e6f6e20455243373231526560408201527131b2b4bb32b91034b6b83632b6b2b73a32b960711b606082015260800190565b602080825260139082015272139195081a5908191bdcd95b9d08195e1a5cdd606a1b604082015260600190565b60208082526031908201527f4552433732313a207472616e736665722063616c6c6572206973206e6f74206f6040820152701ddb995c881b9bdc88185c1c1c9bdd9959607a1b606082015260800190565b6000838252604060208301526200157260408301846200236a565b600082198211156200257e576200257e62002691565b500190565b600082620025955762002595620026a7565b500490565b6000816000190483118215151615620025b757620025b762002691565b500290565b600082821015620025d157620025d162002691565b500390565b60005b83811015620025f3578181015183820152602001620025d9565b838111156200106c5750506000910152565b60008162002617576200261762002691565b506000190190565b6002810460018216806200263457607f821691505b602082108114156200265657634e487b7160e01b600052602260045260246000fd5b50919050565b600060001982141562002673576200267362002691565b5060010190565b6000826200268c576200268c620026a7565b500690565b634e487b7160e01b600052601160045260246000fd5b634e487b7160e01b600052601260045260246000fd5b634e487b7160e01b600052604160045260246000fd5b6001600160e01b0319811681146200065b57600080fdfe608060405234801561001057600080fd5b50604051610ca2380380610ca283398101604081905261002f91610133565b61003a60003361006b565b600280546001600160a01b039384166001600160a01b03199182161790915560018054929093169116179055610165565b6100758282610079565b5050565b6000828152602081815260408083206001600160a01b038516845290915290205460ff16610075576000828152602081815260408083206001600160a01b03851684529091529020805460ff191660011790556100d33390565b6001600160a01b0316816001600160a01b0316837f2f8788117e7eff1d82e926ec794901d17c78024a50270940304540a733656f0d60405160405180910390a45050565b80516001600160a01b038116811461012e57600080fd5b919050565b60008060408385031215610145578182fd5b61014e83610117565b915061015c60208401610117565b90509250929050565b610b2e806101746000396000f3fe608060405234801561001057600080fd5b50600436106100995760003560e01c806301ffc9a71461009e578063248a9ca3146100c65780632a3ac08c146100f75780632f2ff15d1461011e57806336568abe1461013357806391d1485414610146578063a217fddf14610159578063bbf6061b14610161578063c3fe3e2814610169578063d547741f14610189578063f4b9fa751461019c575b600080fd5b6100b16100ac366004610955565b6101af565b60405190151581526020015b60405180910390f35b6100e96100d4366004610903565b60009081526020819052604090206001015490565b6040519081526020016100bd565b6100e97fe39604301a5df21de489c846135593d1f32826f514afa2544bdbe9ace2bfae4a81565b61013161012c36600461091b565b6101e6565b005b61013161014136600461091b565b610212565b6100b161015436600461091b565b610295565b6100e9600081565b6100e96102be565b60025461017c906001600160a01b031681565b6040516100bd9190610a04565b61013161019736600461091b565b610587565b60015461017c906001600160a01b031681565b60006001600160e01b03198216637965db0b60e01b14806101e057506301ffc9a760e01b6001600160e01b03198316145b92915050565b60008281526020819052604090206001015461020381335b6105ad565b61020d8383610611565b505050565b6001600160a01b03811633146102875760405162461bcd60e51b815260206004820152602f60248201527f416363657373436f6e74726f6c3a2063616e206f6e6c792072656e6f756e636560448201526e103937b632b9903337b91039b2b63360891b60648201526084015b60405180910390fd5b6102918282610695565b5050565b6000918252602082815260408084206001600160a01b0393909316845291905290205460ff1690565b6001546040516370a0823160e01b815260009182916001600160a01b03909116906370a08231906102f3903090600401610a04565b60206040518083038186803b15801561030b57600080fd5b505afa15801561031f573d6000803e3d6000fd5b505050506040513d601f19601f82011682018060405250810190610343919061097d565b6001546002546040516370a0823160e01b81529293506001600160a01b039182169263095ea7b3929091169083906370a0823190610385903090600401610a04565b60206040518083038186803b15801561039d57600080fd5b505afa1580156103b1573d6000803e3d6000fd5b505050506040513d601f19601f820116820180604052508101906103d5919061097d565b6040518363ffffffff1660e01b81526004016103f2929190610a18565b602060405180830381600087803b15801561040c57600080fd5b505af1158015610420573d6000803e3d6000fd5b505050506040513d601f19601f8201168201806040525081019061044491906108e3565b61044d57600080fd5b6001546002546040516370a0823160e01b81526001600160a01b039283169263a9059cbb92169083906370a082319061048a903090600401610a04565b60206040518083038186803b1580156104a257600080fd5b505afa1580156104b6573d6000803e3d6000fd5b505050506040513d601f19601f820116820180604052508101906104da919061097d565b6040518363ffffffff1660e01b81526004016104f7929190610a18565b602060405180830381600087803b15801561051157600080fd5b505af1158015610525573d6000803e3d6000fd5b505050506040513d601f19601f8201168201806040525081019061054991906108e3565b506002546040516001600160a01b03909116907fbdd983d6baf07aab2a84779f0fc201c6bf84ab638ad825fa90e0e370f04c39df90600090a2905090565b6000828152602081905260409020600101546105a381336101fe565b61020d8383610695565b6105b78282610295565b610291576105cf816001600160a01b031660146106fa565b6105da8360206106fa565b6040516020016105eb929190610995565b60408051601f198184030181529082905262461bcd60e51b825261027e91600401610a31565b61061b8282610295565b610291576000828152602081815260408083206001600160a01b03851684529091529020805460ff191660011790556106513390565b6001600160a01b0316816001600160a01b0316837f2f8788117e7eff1d82e926ec794901d17c78024a50270940304540a733656f0d60405160405180910390a45050565b61069f8282610295565b15610291576000828152602081815260408083206001600160a01b0385168085529252808320805460ff1916905551339285917ff6391f5c32d9c69d2a47ea670b442974b53935d1edc7fd64eb21e047a839171b9190a45050565b60606000610709836002610a7c565b610714906002610a64565b67ffffffffffffffff81111561073a57634e487b7160e01b600052604160045260246000fd5b6040519080825280601f01601f191660200182016040528015610764576020820181803683370190505b509050600360fc1b8160008151811061078d57634e487b7160e01b600052603260045260246000fd5b60200101906001600160f81b031916908160001a905350600f60fb1b816001815181106107ca57634e487b7160e01b600052603260045260246000fd5b60200101906001600160f81b031916908160001a90535060006107ee846002610a7c565b6107f9906001610a64565b90505b600181111561088d576f181899199a1a9b1b9c1cb0b131b232b360811b85600f166010811061083b57634e487b7160e01b600052603260045260246000fd5b1a60f81b82828151811061085f57634e487b7160e01b600052603260045260246000fd5b60200101906001600160f81b031916908160001a90535060049490941c9361088681610acb565b90506107fc565b5083156108dc5760405162461bcd60e51b815260206004820181905260248201527f537472696e67733a20686578206c656e67746820696e73756666696369656e74604482015260640161027e565b9392505050565b6000602082840312156108f4578081fd5b815180151581146108dc578182fd5b600060208284031215610914578081fd5b5035919050565b6000806040838503121561092d578081fd5b8235915060208301356001600160a01b038116811461094a578182fd5b809150509250929050565b600060208284031215610966578081fd5b81356001600160e01b0319811681146108dc578182fd5b60006020828403121561098e578081fd5b5051919050565b600076020b1b1b2b9b9a1b7b73a3937b61d1030b1b1b7bab73a1604d1b825283516109c7816017850160208801610a9b565b7001034b99036b4b9b9b4b733903937b6329607d1b60179184019182015283516109f8816028840160208801610a9b565b01602801949350505050565b6001600160a01b0391909116815260200190565b6001600160a01b03929092168252602082015260400190565b6000602082528251806020840152610a50816040850160208701610a9b565b601f01601f19169190910160400192915050565b60008219821115610a7757610a77610ae2565b500190565b6000816000190483118215151615610a9657610a96610ae2565b500290565b60005b83811015610ab6578181015183820152602001610a9e565b83811115610ac5576000848401525b50505050565b600081610ada57610ada610ae2565b506000190190565b634e487b7160e01b600052601160045260246000fdfea26469706673582212206a635ba3c15021e4b36dbf267f0d30ead7bde5f793d2f5eee41a499435a1038264736f6c634300080200339f2df0fed2c77648de5860a4cc508cd0818c85b8b8a1ab4ceeef8d981c8956a6a264697066735822122064a4253755f81690a72d99ad9a07ee9f1fad8c0233f330c178ec25529533e95c64736f6c63430008020033",
  "devdoc": {
    "kind": "dev",
    "methods": {
      "approve(address,uint256)": {
        "details": "See {IERC721-approve}."
      },
      "balanceOf(address)": {
        "details": "See {IERC721-balanceOf}."
      },
      "getApproved(uint256)": {
        "details": "See {IERC721-getApproved}."
      },
      "getRoleAdmin(bytes32)": {
        "details": "Returns the admin role that controls `role`. See {grantRole} and {revokeRole}. To change a role's admin, use {_setRoleAdmin}."
      },
      "grantRole(bytes32,address)": {
        "details": "Grants `role` to `account`. If `account` had not been already granted `role`, emits a {RoleGranted} event. Requirements: - the caller must have ``role``'s admin role."
      },
      "hasRole(bytes32,address)": {
        "details": "Returns `true` if `account` has been granted `role`."
      },
      "isApprovedForAll(address,address)": {
        "details": "See {IERC721-isApprovedForAll}."
      },
      "name()": {
        "details": "See {IERC721Metadata-name}."
      },
      "ownerOf(uint256)": {
        "details": "See {IERC721-ownerOf}."
      },
      "renounceRole(bytes32,address)": {
        "details": "Revokes `role` from the calling account. Roles are often managed via {grantRole} and {revokeRole}: this function's purpose is to provide a mechanism for accounts to lose their privileges if they are compromised (such as when a trusted device is misplaced). If the calling account had been granted `role`, emits a {RoleRevoked} event. Requirements: - the caller must be `account`."
      },
      "revokeRole(bytes32,address)": {
        "details": "Revokes `role` from `account`. If `account` had been granted `role`, emits a {RoleRevoked} event. Requirements: - the caller must have ``role``'s admin role."
      },
      "safeTransferFrom(address,address,uint256)": {
        "details": "See {IERC721-safeTransferFrom}."
      },
      "safeTransferFrom(address,address,uint256,bytes)": {
        "details": "See {IERC721-safeTransferFrom}."
      },
      "setApprovalForAll(address,bool)": {
        "details": "See {IERC721-setApprovalForAll}."
      },
      "symbol()": {
        "details": "See {IERC721Metadata-symbol}."
      },
      "tokenURI(uint256)": {
        "details": "See {IERC721Metadata-tokenURI}."
      },
      "transferFrom(address,address,uint256)": {
        "details": "See {IERC721-transferFrom}."
      }
    },
    "version": 1
  },
  "userdoc": {
    "kind": "user",
    "methods": {},
    "version": 1
  },
  "storageLayout": {
    "storage": [
      {
        "astId": 12927,
        "contract": "contracts/zksync/Game.sol:Game",
        "label": "_name",
        "offset": 0,
        "slot": "0",
        "type": "t_string_storage"
      },
      {
        "astId": 12929,
        "contract": "contracts/zksync/Game.sol:Game",
        "label": "_symbol",
        "offset": 0,
        "slot": "1",
        "type": "t_string_storage"
      },
      {
        "astId": 12933,
        "contract": "contracts/zksync/Game.sol:Game",
        "label": "_owners",
        "offset": 0,
        "slot": "2",
        "type": "t_mapping(t_uint256,t_address)"
      },
      {
        "astId": 12937,
        "contract": "contracts/zksync/Game.sol:Game",
        "label": "_balances",
        "offset": 0,
        "slot": "3",
        "type": "t_mapping(t_address,t_uint256)"
      },
      {
        "astId": 12941,
        "contract": "contracts/zksync/Game.sol:Game",
        "label": "_tokenApprovals",
        "offset": 0,
        "slot": "4",
        "type": "t_mapping(t_uint256,t_address)"
      },
      {
        "astId": 12947,
        "contract": "contracts/zksync/Game.sol:Game",
        "label": "_operatorApprovals",
        "offset": 0,
        "slot": "5",
        "type": "t_mapping(t_address,t_mapping(t_address,t_bool))"
      },
      {
        "astId": 62,
        "contract": "contracts/zksync/Game.sol:Game",
        "label": "_roles",
        "offset": 0,
        "slot": "6",
        "type": "t_mapping(t_bytes32,t_struct(RoleData)57_storage)"
      },
      {
        "astId": 19917,
        "contract": "contracts/zksync/Game.sol:Game",
        "label": "_tokenIds",
        "offset": 0,
        "slot": "7",
        "type": "t_struct(Counter)16440_storage"
      },
      {
        "astId": 19924,
        "contract": "contracts/zksync/Game.sol:Game",
        "label": "_tokenURIs",
        "offset": 0,
        "slot": "8",
        "type": "t_mapping(t_uint256,t_string_storage)"
      },
      {
        "astId": 19928,
        "contract": "contracts/zksync/Game.sol:Game",
        "label": "_votesById",
        "offset": 0,
        "slot": "9",
        "type": "t_mapping(t_uint256,t_uint256)"
      },
      {
        "astId": 20108,
        "contract": "contracts/zksync/Game.sol:Game",
        "label": "dai",
        "offset": 0,
        "slot": "10",
        "type": "t_contract(IERC20)10799"
      },
      {
        "astId": 20112,
        "contract": "contracts/zksync/Game.sol:Game",
        "label": "nftIdHasBeenPlaced",
        "offset": 0,
        "slot": "11",
        "type": "t_mapping(t_uint256,t_bool)"
      },
      {
        "astId": 20116,
        "contract": "contracts/zksync/Game.sol:Game",
        "label": "donationAddressByNftId",
        "offset": 0,
        "slot": "12",
        "type": "t_mapping(t_uint256,t_address)"
      },
      {
        "astId": 20120,
        "contract": "contracts/zksync/Game.sol:Game",
        "label": "nftIdByDonationAddress",
        "offset": 0,
        "slot": "13",
        "type": "t_mapping(t_address,t_uint256)"
      },
      {
        "astId": 20124,
        "contract": "contracts/zksync/Game.sol:Game",
        "label": "votesPerNftId",
        "offset": 0,
        "slot": "14",
        "type": "t_mapping(t_uint256,t_uint256)"
      },
      {
        "astId": 20127,
        "contract": "contracts/zksync/Game.sol:Game",
        "label": "g_game_number",
        "offset": 0,
        "slot": "15",
        "type": "t_uint256"
      },
      {
        "astId": 20130,
        "contract": "contracts/zksync/Game.sol:Game",
        "label": "g_rounds",
        "offset": 0,
        "slot": "16",
        "type": "t_uint256"
      },
      {
        "astId": 20132,
        "contract": "contracts/zksync/Game.sol:Game",
        "label": "g_current_round",
        "offset": 0,
        "slot": "17",
        "type": "t_uint256"
      },
      {
        "astId": 20134,
        "contract": "contracts/zksync/Game.sol:Game",
        "label": "g_start_block",
        "offset": 0,
        "slot": "18",
        "type": "t_uint256"
      },
      {
        "astId": 20137,
        "contract": "contracts/zksync/Game.sol:Game",
        "label": "g_round_blocktime",
        "offset": 0,
        "slot": "19",
        "type": "t_uint256"
      },
      {
        "astId": 20140,
        "contract": "contracts/zksync/Game.sol:Game",
        "label": "g_intermission_blocktime",
        "offset": 0,
        "slot": "20",
        "type": "t_uint256"
      },
      {
        "astId": 20142,
        "contract": "contracts/zksync/Game.sol:Game",
        "label": "g_number_dancers",
        "offset": 0,
        "slot": "21",
        "type": "t_uint256"
      },
      {
        "astId": 20145,
        "contract": "contracts/zksync/Game.sol:Game",
        "label": "g_current_number_dancers",
        "offset": 0,
        "slot": "22",
        "type": "t_uint256"
      },
      {
        "astId": 20148,
        "contract": "contracts/zksync/Game.sol:Game",
        "label": "g_game_started",
        "offset": 0,
        "slot": "23",
        "type": "t_bool"
      },
      {
        "astId": 20158,
        "contract": "contracts/zksync/Game.sol:Game",
        "label": "gameByBracketByRound",
        "offset": 0,
        "slot": "24",
        "type": "t_mapping(t_uint256,t_mapping(t_uint256,t_mapping(t_uint256,t_array(t_uint256)2_storage)))"
      },
      {
        "astId": 20162,
        "contract": "contracts/zksync/Game.sol:Game",
        "label": "notEliminated",
        "offset": 0,
        "slot": "25",
        "type": "t_mapping(t_address,t_bool)"
      },
      {
        "astId": 20166,
        "contract": "contracts/zksync/Game.sol:Game",
        "label": "addressByNFTId",
        "offset": 0,
        "slot": "26",
        "type": "t_mapping(t_uint256,t_address)"
      }
    ],
    "types": {
      "t_address": {
        "encoding": "inplace",
        "label": "address",
        "numberOfBytes": "20"
      },
      "t_array(t_uint256)2_storage": {
        "base": "t_uint256",
        "encoding": "inplace",
        "label": "uint256[2]",
        "numberOfBytes": "64"
      },
      "t_bool": {
        "encoding": "inplace",
        "label": "bool",
        "numberOfBytes": "1"
      },
      "t_bytes32": {
        "encoding": "inplace",
        "label": "bytes32",
        "numberOfBytes": "32"
      },
      "t_contract(IERC20)10799": {
        "encoding": "inplace",
        "label": "contract IERC20",
        "numberOfBytes": "20"
      },
      "t_mapping(t_address,t_bool)": {
        "encoding": "mapping",
        "key": "t_address",
        "label": "mapping(address => bool)",
        "numberOfBytes": "32",
        "value": "t_bool"
      },
      "t_mapping(t_address,t_mapping(t_address,t_bool))": {
        "encoding": "mapping",
        "key": "t_address",
        "label": "mapping(address => mapping(address => bool))",
        "numberOfBytes": "32",
        "value": "t_mapping(t_address,t_bool)"
      },
      "t_mapping(t_address,t_uint256)": {
        "encoding": "mapping",
        "key": "t_address",
        "label": "mapping(address => uint256)",
        "numberOfBytes": "32",
        "value": "t_uint256"
      },
      "t_mapping(t_bytes32,t_struct(RoleData)57_storage)": {
        "encoding": "mapping",
        "key": "t_bytes32",
        "label": "mapping(bytes32 => struct AccessControl.RoleData)",
        "numberOfBytes": "32",
        "value": "t_struct(RoleData)57_storage"
      },
      "t_mapping(t_uint256,t_address)": {
        "encoding": "mapping",
        "key": "t_uint256",
        "label": "mapping(uint256 => address)",
        "numberOfBytes": "32",
        "value": "t_address"
      },
      "t_mapping(t_uint256,t_array(t_uint256)2_storage)": {
        "encoding": "mapping",
        "key": "t_uint256",
        "label": "mapping(uint256 => uint256[2])",
        "numberOfBytes": "32",
        "value": "t_array(t_uint256)2_storage"
      },
      "t_mapping(t_uint256,t_bool)": {
        "encoding": "mapping",
        "key": "t_uint256",
        "label": "mapping(uint256 => bool)",
        "numberOfBytes": "32",
        "value": "t_bool"
      },
      "t_mapping(t_uint256,t_mapping(t_uint256,t_array(t_uint256)2_storage))": {
        "encoding": "mapping",
        "key": "t_uint256",
        "label": "mapping(uint256 => mapping(uint256 => uint256[2]))",
        "numberOfBytes": "32",
        "value": "t_mapping(t_uint256,t_array(t_uint256)2_storage)"
      },
      "t_mapping(t_uint256,t_mapping(t_uint256,t_mapping(t_uint256,t_array(t_uint256)2_storage)))": {
        "encoding": "mapping",
        "key": "t_uint256",
        "label": "mapping(uint256 => mapping(uint256 => mapping(uint256 => uint256[2])))",
        "numberOfBytes": "32",
        "value": "t_mapping(t_uint256,t_mapping(t_uint256,t_array(t_uint256)2_storage))"
      },
      "t_mapping(t_uint256,t_string_storage)": {
        "encoding": "mapping",
        "key": "t_uint256",
        "label": "mapping(uint256 => string)",
        "numberOfBytes": "32",
        "value": "t_string_storage"
      },
      "t_mapping(t_uint256,t_uint256)": {
        "encoding": "mapping",
        "key": "t_uint256",
        "label": "mapping(uint256 => uint256)",
        "numberOfBytes": "32",
        "value": "t_uint256"
      },
      "t_string_storage": {
        "encoding": "bytes",
        "label": "string",
        "numberOfBytes": "32"
      },
      "t_struct(Counter)16440_storage": {
        "encoding": "inplace",
        "label": "struct Counters.Counter",
        "members": [
          {
            "astId": 16439,
            "contract": "contracts/zksync/Game.sol:Game",
            "label": "_value",
            "offset": 0,
            "slot": "0",
            "type": "t_uint256"
          }
        ],
        "numberOfBytes": "32"
      },
      "t_struct(RoleData)57_storage": {
        "encoding": "inplace",
        "label": "struct AccessControl.RoleData",
        "members": [
          {
            "astId": 54,
            "contract": "contracts/zksync/Game.sol:Game",
            "label": "members",
            "offset": 0,
            "slot": "0",
            "type": "t_mapping(t_address,t_bool)"
          },
          {
            "astId": 56,
            "contract": "contracts/zksync/Game.sol:Game",
            "label": "adminRole",
            "offset": 0,
            "slot": "1",
            "type": "t_bytes32"
          }
        ],
        "numberOfBytes": "64"
      },
      "t_uint256": {
        "encoding": "inplace",
        "label": "uint256",
        "numberOfBytes": "32"
      }
    }
  }
}